:020000040000fa
:080000000002040000000000f2
:020000040000fa
:040008001e030000d3
:020000040000fa
:04000c001e030000cf
:020000040000fa
:040010001e030000cb
:020000040000fa
:040014001e030000c7
:020000040000fa
:040018001e030000c3
:020000040000fa
:04001c001e030000bf
:020000040000fa
:040020001e030000bb
:020000040000fa
:040024001e030000b7
:020000040000fa
:040028001e030000b3
:020000040000fa
:04002c001e030000af
:020000040000fa
:040030001e030000ab
:020000040000fa
:04003400fa020000cc
:020000040000fa
:040038001e030000a3
:020000040000fa
:04003c001e0300009f
:020000040000fa
:040040001e0300009b
:020000040000fa
:040044001e03000097
:020000040000fa
:040048001e03000093
:020000040000fa
:04004c001e0300008f
:020000040000fa
:040050001e0300008b
:020000040000fa
:040054001e03000087
:020000040000fa
:040058001e03000083
:020000040000fa
:04005c001e0300007f
:020000040000fa
:040060001e0300007b
:020000040000fa
:040064001e03000077
:020000040000fa
:040068001e03000073
:020000040000fa
:04006c001e0300006f
:020000040000fa
:040070001e0300006b
:020000040000fa
:040074001e03000067
:020000040000fa
:040078001e03000063
:020000040000fa
:04007c001e0300005f
:020000040000fa
:040080001e0300005b
:020000040000fa
:040084001e03000057
:020000040000fa
:040088001e03000053
:020000040000fa
:04008c001e0300004f
:020000040000fa
:040090001e0300004b
:020000040000fa
:040094001e03000047
:020000040000fa
:040098001e03000043
:020000040000fa
:04009c001e0300003f
:020000040000fa
:0400a0001e0300003b
:020000040000fa
:0400a4001e03000037
:020000040000fa
:0400a8001e03000033
:020000040000fa
:0400ac001e0300002f
:020000040000fa
:0400b0001e0300002b
:020000040000fa
:0400b4001e03000027
:020000040000fa
:0400b8001e03000023
:020000040000fa
:0400bc001e0300001f
:020000040000fa
:0400c0001e0300001b
:020000040000fa
:0400c4001e03000017
:020000040000fa
:0400c8001e03000013
:020000040000fa
:0400cc001e0300000f
:020000040000fa
:0400d0001e0300000b
:020000040000fa
:0400d4001e03000007
:020000040000fa
:0400d8001e03000003
:020000040000fa
:0400dc001e030000ff
:020000040000fa
:0400e0001e030000fb
:020000040000fa
:0400e4001e030000f7
:020000040000fa
:0400e8001e030000f3
:020000040000fa
:0400ec001e030000ef
:020000040000fa
:0400f0001e030000eb
:020000040000fa
:0400f4001e030000e7
:020000040000fa
:0400f8001e030000e3
:020000040000fa
:0400fc001e030000df
:020000040000fa
:040100001e030000da
:020000040000fa
:040104001e030000d6
:020000040000fa
:040108001e030000d2
:020000040000fa
:04010c001e030000ce
:020000040000fa
:040110001e030000ca
:020000040000fa
:040114001e030000c6
:020000040000fa
:040118001e030000c2
:020000040000fa
:04011c001e030000be
:020000040000fa
:040120001e030000ba
:020000040000fa
:040124001e030000b6
:020000040000fa
:040128001e030000b2
:020000040000fa
:04012c001e030000ae
:020000040000fa
:040130001e030000aa
:020000040000fa
:040134001e030000a6
:020000040000fa
:040138001e030000a2
:020000040000fa
:04013c001e0300009e
:020000040000fa
:040140001e0300009a
:020000040000fa
:040144001e03000096
:020000040000fa
:040148001e03000092
:020000040000fa
:04014c001e0300008e
:020000040000fa
:040150001e0300008a
:020000040000fa
:040154001e03000086
:020000040000fa
:040158001e03000082
:020000040000fa
:04015c001e0300007e
:020000040000fa
:040160001e0300007a
:020000040000fa
:040164001e03000076
:020000040000fa
:040168001e03000072
:020000040000fa
:04016c001e0300006e
:020000040000fa
:040170001e0300006a
:020000040000fa
:040174001e03000066
:020000040000fa
:040178001e03000062
:020000040000fa
:04017c001e0300005e
:020000040000fa
:040180001e0300005a
:020000040000fa
:040184001e03000056
:020000040000fa
:040188001e03000052
:020000040000fa
:04018c001e0300004e
:020000040000fa
:040190001e0300004a
:020000040000fa
:040194001e03000046
:020000040000fa
:040198001e03000042
:020000040000fa
:04019c001e0300003e
:020000040000fa
:0401a0001e0300003a
:020000040000fa
:0401a4001e03000036
:020000040000fa
:0401a8001e03000032
:020000040000fa
:0401ac001e0300002e
:020000040000fa
:0401b0001e0300002a
:020000040000fa
:0401b4001e03000026
:020000040000fa
:0401b8001e03000022
:020000040000fa
:0401bc001e0300001e
:020000040000fa
:0401c0001e0300001a
:020000040000fa
:0401c4001e03000016
:020000040000fa
:0401c8001e03000012
:020000040000fa
:0401cc001e0300000e
:020000040000fa
:0401d0001e0300000a
:020000040000fa
:0401d4001e03000006
:020000040000fa
:0401d8001e03000002
:020000040000fa
:0401dc001e030000fe
:020000040000fa
:0401e0001e030000fa
:020000040000fa
:0401e4001e030000f6
:020000040000fa
:0401e8001e030000f2
:020000040000fa
:0401ec001e030000ee
:020000040000fa
:0401f0001e030000ea
:020000040000fa
:0401f4001e030000e6
:020000040000fa
:0401f8001e030000e2
:020000040000fa
:0401fc001e030000de
:020000040000fa
:040200001e030000d9
:020000040000fa
:040204001e030000d5
:020000040000fa
:040208001e030000d1
:020000040000fa
:04020c001e030000cd
:020000040000fa
:040210001e030000c9
:020000040000fa
:040214001e030000c5
:020000040000fa
:040218001e030000c1
:020000040000fa
:04021c001e030000bd
:020000040000fa
:040220001e030000b9
:020000040000fa
:040224001e030000b5
:020000040000fa
:040228001e030000b1
:020000040000fa
:04022c001e030000ad
:020000040000fa
:040230001e030000a9
:020000040000fa
:040234001e030000a5
:020000040000fa
:040238001e030000a1
:020000040000fa
:04023c001e0300009d
:020000040000fa
:040240001e03000099
:020000040000fa
:040244001e03000095
:020000040000fa
:040248001e03000091
:020000040000fa
:04024c001e0300008d
:020000040000fa
:040250001e03000089
:020000040000fa
:040254001e03000085
:020000040000fa
:040258001e03000081
:020000040000fa
:04025c001e0300007d
:020000040000fa
:040260001e03000079
:020000040000fa
:040264001e03000075
:020000040000fa
:040268001e03000071
:020000040000fa
:04026c001e0300006d
:020000040000fa
:040270001e03000069
:020000040000fa
:040274001e03000065
:020000040000fa
:040278001e03000061
:020000040000fa
:04027c001e0300005d
:020000040000fa
:040280001e03000059
:020000040000fa
:040284001e03000055
:020000040000fa
:040288001e03000051
:020000040000fa
:04028c001e0300004d
:020000040000fa
:040290001e03000049
:020000040000fa
:040294001e03000045
:020000040000fa
:040298001e03000041
:020000040000fa
:04029c001e0300003d
:020000040000fa
:0402a0001e03000039
:020000040000fa
:0402a4001e03000035
:020000040000fa
:0402a8001e03000031
:020000040000fa
:0402ac001e0300002d
:020000040000fa
:0402b0001e03000029
:020000040000fa
:0402b4001e03000025
:020000040000fa
:0402b8001e03000021
:020000040000fa
:0402bc001e0300001d
:020000040000fa
:0402c0001e03000019
:020000040000fa
:0402c4001e03000015
:020000040000fa
:0402c8001e03000011
:020000040000fa
:0402cc001e0300000d
:020000040000fa
:0402d0001e03000009
:020000040000fa
:0402d4001e03000005
:020000040000fa
:0402d8001e03000001
:020000040000fa
:0402dc001e030000fd
:020000040000fa
:0402e0001e030000f9
:020000040000fa
:0402e4001e030000f5
:020000040000fa
:0402e8001e030000f1
:020000040000fa
:0402ec001e030000ed
:020000040000fa
:0402f0001e030000e9
:020000040000fa
:0402f4001e030000e5
:020000040000fa
:0402f8001e030000e1
:020000040000fa
:0402fc001e030000dd
:020000040000fa
:040300001e030000d8
:020000040000fa
:040304001e030000d4
:020000040000fa
:040308001e030000d0
:020000040000fa
:04030c001e030000cc
:020000040000fa
:040310001e030000c8
:020000040000fa
:100400000f0021000eff21000e01880000000000f7
:10041000000020000000e000020032000001200087
:100420002002880014000700860007000000e0009a
:1004300003003a0000002000010020000200370005
:100440000000200001002000810f70000100320038
:100450000f000700000020000000e0000200320052
:10046000000002000000000048030200000000003d
:100470000040da000000fe00200020000000e00044
:1004800002003200100020009001880000000600e9
:10049000a1028800800478000000eb001f003700f4
:1004a000e284440054a0b4009905ba00e2844400f8
:1004b00054a0b4009906ba00e284440054a0b400e9
:1004c0000006eb00476fde00fd07b200ae018800ba
:1004d000636ce10003003a000ad801000000eb0061
:1004e0000e003700606ce10008003a00004deb00a0
:1004f0000a05e800020039003420ec000af0a000f0
:100500008b05e900f9ff3e00040037006168e10057
:10051000010032000086eb000b00070019c7ba008b
:100520000e04e0001905ba0003003a000a00e000da
:10053000dbff3a0000000600fe07b200ae028800b2
:100540008a047800f5ff37000cd0a300e20f4d00bd
:100550001c00390089027800354dba000a05e80010
:10056000020039003420ec000af0a0008b05e900fd
:100570000f003200254dba000a05e80002003900dc
:100580003420ec000af0a0008b05e90008003200de
:100590000c00e0000600320015cdba000a05e800a4
:1005a000020039003420ec000af0a0008b05e900bd
:1005b0008984e80054a0b4000b00e000e2ff3a0098
:1005c000000006009902ba00055d78008b05e9007d
:1005d000f7ff3200c82ade00055d78008b05e900d0
:1005e000f3ff32000c00e000f1ff320019ddba0029
:1005f000eeff3700809fbe000000fa000068a900ef
:10060000207080000000d100614060000004a20062
:10061000614060000080fb0061006000000040005d
:10062000217080000110a10001007000207088007e
:100630000080fa004f00be00004006000040da00d3
:080640000000fe0000000500af
:020000040000fa
:100648000000fa00c3e8a8000080fa0000000600d5
:100658000000fa00c3e8a9000080fa0000000600c4
:100668000000fa00c1e8a90001428000000027004c
:1006780001007000004288000068a9002068a800f6
:100688000080fa00000006000000fa00ecff0700f6
:10069800f3ff0700050007005001200000708800e4
:1006a8000080eb00a0708800ffff37000000fa0010
:1006b8000021ef0000002600100888000003280031
:0c06c800200888000080fa0000000600f6
:020000040000fa
:04af0000ffff00004f
:020000040000fa
:04af2000ffff00002f
:020000040000fa
:04af3000ffff00001f
:020000040000fa
:04af3800bfff000057
:020000040000fa
:04af4000ffff00000f
:020000040000fa
:04af4800ffff000007
:020000040000fa
:04af5000ffff0000ff
:020000040000fa
:04af5800ffff0000f7
:020000040000fa
:04af6000ffff0000ef
:020000040000fa
:04af6800ffff0000e7
:020000040000fa
:04af7000ffff0000df
:020000040000fa
:04af7800ffff0000d7
:020000040000fa
:04af8000ffff0000cf
:020000040000fa
:04af8800ffff0000c7
:00000001FF
