:020000040000fa
:080000000002040000000000f2
:020000040000fa
:04000800fa020000f8
:020000040000fa
:04000c003c030000b1
:020000040000fa
:040010009c0300004d
:020000040000fa
:040014001a030000cb
:020000040000fa
:040018005c03000085
:020000040000fa
:04001c007c03000061
:020000040000fa
:04002000bc0300001d
:020000040000fa
:040024006a05000069
:020000040000fa
:040028006a05000065
:020000040000fa
:04002c006a05000061
:020000040000fa
:040030006a0500005d
:020000040000fa
:040034006a05000059
:020000040000fa
:040038006a05000055
:020000040000fa
:04003c006a05000051
:020000040000fa
:040040006a0500004d
:020000040000fa
:040044006a05000049
:020000040000fa
:040048006a05000045
:020000040000fa
:04004c006a05000041
:020000040000fa
:040050006a0500003d
:020000040000fa
:040054006a05000039
:020000040000fa
:040058006a05000035
:020000040000fa
:04005c006a05000031
:020000040000fa
:040060006a0500002d
:020000040000fa
:040064006a05000029
:020000040000fa
:040068000804000088
:020000040000fa
:04006c006a05000021
:020000040000fa
:040070006a0500001d
:020000040000fa
:040074006a05000019
:020000040000fa
:040078006a05000015
:020000040000fa
:04007c006a05000011
:020000040000fa
:040080006a0500000d
:020000040000fa
:040084006a05000009
:020000040000fa
:040088006a05000005
:020000040000fa
:04008c006a05000001
:020000040000fa
:040090006a050000fd
:020000040000fa
:040094006a050000f9
:020000040000fa
:040098006a050000f5
:020000040000fa
:04009c006a050000f1
:020000040000fa
:0400a0006a050000ed
:020000040000fa
:0400a4006a050000e9
:020000040000fa
:0400a8006a050000e5
:020000040000fa
:0400ac006a050000e1
:020000040000fa
:0400b0006a050000dd
:020000040000fa
:0400b4006a050000d9
:020000040000fa
:0400b8006a050000d5
:020000040000fa
:0400bc006a050000d1
:020000040000fa
:0400c0006a050000cd
:020000040000fa
:0400c4006a050000c9
:020000040000fa
:0400c8006a050000c5
:020000040000fa
:0400cc006a050000c1
:020000040000fa
:0400d0006a050000bd
:020000040000fa
:0400d4006a050000b9
:020000040000fa
:0400d8006a050000b5
:020000040000fa
:0400dc006a050000b1
:020000040000fa
:0400e0006a050000ad
:020000040000fa
:0400e4006a050000a9
:020000040000fa
:0400e8006a050000a5
:020000040000fa
:0400ec006a050000a1
:020000040000fa
:0400f0006a0500009d
:020000040000fa
:0400f4006a05000099
:020000040000fa
:0400f8006a05000095
:020000040000fa
:0400fc006a05000091
:020000040000fa
:040100006a0500008c
:020000040000fa
:040104006a05000088
:020000040000fa
:040108006a05000084
:020000040000fa
:04010c006a05000080
:020000040000fa
:040110006a0500007c
:020000040000fa
:040114006a05000078
:020000040000fa
:040118006a05000074
:020000040000fa
:04011c006a05000070
:020000040000fa
:040120006a0500006c
:020000040000fa
:040124006a05000068
:020000040000fa
:040128006a05000064
:020000040000fa
:04012c006a05000060
:020000040000fa
:040130006a0500005c
:020000040000fa
:040134006a05000058
:020000040000fa
:040138006a05000054
:020000040000fa
:04013c006a05000050
:020000040000fa
:040140006a0500004c
:020000040000fa
:040144006a05000048
:020000040000fa
:040148006a05000044
:020000040000fa
:04014c006a05000040
:020000040000fa
:040150006a0500003c
:020000040000fa
:040154006a05000038
:020000040000fa
:040158006a05000034
:020000040000fa
:04015c006a05000030
:020000040000fa
:040160006a0500002c
:020000040000fa
:040164006a05000028
:020000040000fa
:040168006a05000024
:020000040000fa
:04016c006a05000020
:020000040000fa
:040170006a0500001c
:020000040000fa
:040174006a05000018
:020000040000fa
:040178006a05000014
:020000040000fa
:04017c006a05000010
:020000040000fa
:040180006a0500000c
:020000040000fa
:040184006a05000008
:020000040000fa
:040188006a05000004
:020000040000fa
:04018c006a05000000
:020000040000fa
:040190006a050000fc
:020000040000fa
:040194006a050000f8
:020000040000fa
:040198006a050000f4
:020000040000fa
:04019c006a050000f0
:020000040000fa
:0401a0006a050000ec
:020000040000fa
:0401a4006a050000e8
:020000040000fa
:0401a8006a050000e4
:020000040000fa
:0401ac006a050000e0
:020000040000fa
:0401b0006a050000dc
:020000040000fa
:0401b4006a050000d8
:020000040000fa
:0401b8006a050000d4
:020000040000fa
:0401bc006a050000d0
:020000040000fa
:0401c0006a050000cc
:020000040000fa
:0401c4006a050000c8
:020000040000fa
:0401c8006a050000c4
:020000040000fa
:0401cc006a050000c0
:020000040000fa
:0401d0006a050000bc
:020000040000fa
:0401d4006a050000b8
:020000040000fa
:0401d8006a050000b4
:020000040000fa
:0401dc006a050000b0
:020000040000fa
:0401e0006a050000ac
:020000040000fa
:0401e4006a050000a8
:020000040000fa
:0401e8006a050000a4
:020000040000fa
:0401ec006a050000a0
:020000040000fa
:0401f0006a0500009c
:020000040000fa
:0401f4006a05000098
:020000040000fa
:0401f8006a05000094
:020000040000fa
:0401fc006a05000090
:020000040000fa
:040200006a0500008b
:020000040000fa
:040204006a05000087
:020000040000fa
:040208006a05000083
:020000040000fa
:04020c006a0500007f
:020000040000fa
:040210006a0500007b
:020000040000fa
:040214006a05000077
:020000040000fa
:040218006a05000073
:020000040000fa
:04021c006a0500006f
:020000040000fa
:040220006a0500006b
:020000040000fa
:040224006a05000067
:020000040000fa
:040228006a05000063
:020000040000fa
:04022c006a0500005f
:020000040000fa
:040230006a0500005b
:020000040000fa
:040234006a05000057
:020000040000fa
:040238006a05000053
:020000040000fa
:04023c006a0500004f
:020000040000fa
:040240006a0500004b
:020000040000fa
:040244006a05000047
:020000040000fa
:040248006a05000043
:020000040000fa
:04024c006a0500003f
:020000040000fa
:040250006a0500003b
:020000040000fa
:040254006a05000037
:020000040000fa
:040258006a05000033
:020000040000fa
:04025c006a0500002f
:020000040000fa
:040260006a0500002b
:020000040000fa
:040264006a05000027
:020000040000fa
:040268006a05000023
:020000040000fa
:04026c006a0500001f
:020000040000fa
:040270006a0500001b
:020000040000fa
:040274006a05000017
:020000040000fa
:040278006a05000013
:020000040000fa
:04027c006a0500000f
:020000040000fa
:040280006a0500000b
:020000040000fa
:040284006a05000007
:020000040000fa
:040288006a05000003
:020000040000fa
:04028c006a050000ff
:020000040000fa
:040290006a050000fb
:020000040000fa
:040294006a050000f7
:020000040000fa
:040298006a050000f3
:020000040000fa
:04029c006a050000ef
:020000040000fa
:0402a0006a050000eb
:020000040000fa
:0402a4006a050000e7
:020000040000fa
:0402a8006a050000e3
:020000040000fa
:0402ac006a050000df
:020000040000fa
:0402b0006a050000db
:020000040000fa
:0402b4006a050000d7
:020000040000fa
:0402b8006a050000d3
:020000040000fa
:0402bc006a050000cf
:020000040000fa
:0402c0006a050000cb
:020000040000fa
:0402c4006a050000c7
:020000040000fa
:0402c8006a050000c3
:020000040000fa
:0402cc006a050000bf
:020000040000fa
:0402d0006a050000bb
:020000040000fa
:0402d4006a050000b7
:020000040000fa
:0402d8006a050000b3
:020000040000fa
:0402dc006a050000af
:020000040000fa
:0402e0006a050000ab
:020000040000fa
:0402e4006a050000a7
:020000040000fa
:0402e8006a050000a3
:020000040000fa
:0402ec006a0500009f
:020000040000fa
:0402f0006a0500009b
:020000040000fa
:0402f4006a05000097
:020000040000fa
:0402f8006a05000093
:020000040000fa
:0402fc006a0500008f
:020000040000fa
:040300006a0500008a
:020000040000fa
:040304006a05000086
:020000040000fa
:040308006a05000082
:020000040000fa
:04030c006a0500007e
:020000040000fa
:040310006a0500007a
:020000040000fa
:100400002f0721000eff21000e01880000000000d0
:10041000000020000000e000020032000001200087
:100420002002880014000700ac0107000000e00073
:1004300003003a00c07c20000100200002003700c9
:100440000000200001002000810f70000100320038
:100450000f000700000020000000e0000200320052
:100460000000020000000000dc08020000000000a4
:100470000040da000000fe00200020000000e00044
:1004800002003200100020009001880000000600e9
:10049000a1028800800478000000eb001f003700f4
:1004a000e284440054a0b4009905ba00e2844400f8
:1004b00054a0b4009906ba00e284440054a0b400e9
:1004c0000006eb00476fde00fd07b200ae018800ba
:1004d000636ce10003003a000ad801000000eb0061
:1004e0000e003700606ce10008003a00004deb00a0
:1004f0000a05e800020039003420ec000af0a000f0
:100500008b05e900f9ff3e00040037006168e10057
:10051000010032000086eb000b00070019c7ba008b
:100520000e04e0001905ba0003003a000a00e000da
:10053000dbff3a0000000600fe07b200ae028800b2
:100540008a047800f5ff37000cd0a300e20f4d00bd
:100550001c00390089027800354dba000a05e80010
:10056000020039003420ec000af0a0008b05e900fd
:100570000f003200254dba000a05e80002003900dc
:100580003420ec000af0a0008b05e90008003200de
:100590000c00e0000600320015cdba000a05e800a4
:1005a000020039003420ec000af0a0008b05e900bd
:1005b0008984e80054a0b4000b00e000e2ff3a0098
:1005c000000006009902ba00055d78008b05e9007d
:1005d000f7ff3200c82ade00055d78008b05e900d0
:1005e000f3ff32000c00e000f1ff320019ddba0029
:1005f000eeff37003600f800809fbe00829fbe00ed
:10060000849fbe00869fbe000000fa00c028a9009b
:100610000000eb00dc0207000080fa004f03be0080
:100620004f02be004f01be004f00be003600f90071
:10063000004006003600f800809fbe00829fbe008a
:10064000849fbe00869fbe000000fa00d302070010
:10065000c048a90010002000cb0207000080fa006b
:100660004f03be004f02be004f01be004f00be0050
:100670003600f900004006003600f800809fbe00fa
:10068000829fbe00849fbe00869fbe000000fa00cd
:10069000c068a90020002000bb0207000080fa000b
:1006a0004f03be004f02be004f01be004f00be0010
:1006b0003600f900004006003600f800809fbe00ba
:1006c000829fbe00849fbe00869fbe000000fa008d
:1006d000c088a90030002000ab0207000080fa00ab
:1006e0004f03be004f02be004f01be004f00be00d0
:1006f0003600f900004006003600f800809fbe007a
:10070000829fbe00849fbe00869fbe000000fa004c
:10071000c0a8a900400020009b0207000080fa004a
:100720004f03be004f02be004f01be004f00be008f
:100730003600f900004006003600f800809fbe0039
:10074000829fbe00849fbe00869fbe000000fa000c
:10075000c608a900700020008b0207000080fa0084
:100760004f03be004f02be004f01be004f00be004f
:100770003600f900004006003600f800809fbe00f9
:10078000829fbe00849fbe00869fbe000000fa00cc
:100790002146800000102000008060000000e00082
:1007a00003003200c508a900c0002000760207003f
:1007b0002146800000002800008060000000e0006a
:1007c00003003200c5e8a900800020006e02070087
:1007d0002146800000022000008060000000e00050
:1007e00003003200c4a8a9009000200066020700a0
:1007f00020468000700060000000e000030032002e
:10080000c488a900a00020005f020700ffff370096
:100810003600f800809fbe00829fbe00849fbe000d
:10082000869fbe000200fa0020838000e20f500085
:1008300088003200e20f500003003900e30f50003f
:100840007700320095003700011080000040200042
:10085000008060000000e00005003a0021108000e8
:1008600000022000008060000000e0000a0032006a
:100870000110800000082000008060000000e000ff
:100880002400320021108000002020000080600041
:100890000000e0001f0032002010800064006000b3
:1008a0000000e0000c003a0010002000de0007000d
:1008b000308380000000e0000400320030838000bc
:1008c00071108000814078000148780010002000fd
:1008d000208388003600370070108000004f7800b9
:1008e0000000eb00d0000700408380000000e00023
:1008f0000500320040838000104078000080fb003b
:10090000601088000182a800200020002083880059
:1009100027003700011080000040200000806000a8
:100920000000e000220032002110800000022000c0
:10093000008060000000e0001d003a0020108000f0
:10094000640060000000e00004003a006e70ef00f8
:100950003000200020838800130037006ed0bf00d5
:100960000004e0000d0032000000eb00ae000700c4
:10097000408380000000e0000500320040838000da
:10098000104078000080fb00601088000182a80001
:100990002000200020838800030037006e70ef00e5
:1009a000300020002083880070108000004f780005
:1009b00020838000e10f500039003a0021108000b0
:1009c00000022000008060000000e00036003200dd
:1009d0002110800000042000008060000000e00082
:1009e0000b003a00308380000000e0000400320079
:1009f00030838000711080008140780001487800c9
:100a0000200020008800070042f0b70029003700ce
:100a100070108000004f780004c2a9002500370044
:100a2000300020008000070042f0b70010c0b30083
:100a30006ef0b70042d0bf000004e00002003200b8
:100a400070108000004f7800100020002083880084
:100a5000180037002110800000002800008060008e
:100a60000000e0000b003a000000eb006e00070001
:100a7000408380000000e0000d00320040838000d1
:100a8000104078000080fb00601088000182a80000
:100a9000080037006430ef0006003700ffff370022
:100aa00000000000030037000000000001003700d4
:100ab000000000000208a9000080fa004f03be00f9
:100ac0004f02be004f01be004f00be003600f900cd
:100ad000004006000040da000000fe0000000500b3
:020000040000fa
:100ae0000000fa0000002800001088000422ef0037
:100af00070002000250007000000eb001d0007002b
:100b00006430ef000000eb00060007000000eb007f
:100b10000a0007000208a9002208a8000080fa00c5
:100b2000000006000200fa00000f78009e00780026
:100b3000418388000080fa00000006000200fa00ed
:100b4000000f78009e007800318388000080fa0052
:100b5000000006000000fa00408380000080fa00d8
:100b6000000006000000fa00308380000080fa00d8
:100b7000000006000200fa00000f78009e007800d6
:100b8000411088000080fa00000006000200fa0010
:100b9000000f7800f00720009e007800808f500042
:100ba000020036000142a800010037000142a900fe
:100bb0006430ef009e007800311088000080fa0059
:100bc000000006000000fa00408380000000e00002
:100bd0000600320040838000104078000080fb0057
:100be000601088000182a8000100370000000000aa
:100bf0000080fa00000006000000fa003083800048
:100c00000000e00005003200308380007110800099
:100c100081407800014878000100370000000000a2
:100c20000080fa00000006000200fa00000f7800c1
:100c30001e007800e10f500012003200e10f50005a
:100c400003003900e20f5000140032004500370065
:100c50005083800011002100810040000000e80066
:100c60005083880001007800aeff070051838000a8
:100c7000f0032000808f5000350036006a30ef000e
:100c8000380037006c30ef0010c0b30041f0b700ff
:100c900000002100a9ff07003200370041d0bf004b
:100ca0000004e0001c003200608380000000e000cf
:100cb00008003a0000d0bf000080fb004800dd00c3
:100cc00050838800608380000000e8006083880013
:100cd0000a00370060838000e10f500007003a00ef
:100ce00000d0bf008080fb005083800001007000b6
:100cf000508388006c30ef004170ef00518380001a
:100d0000f0032000808f5000130036000004200004
:100d100050838800130037005083800002002100b8
:100d200012417800110021008100400082487800c3
:100d30000000e8005083880051838000f003200009
:100d4000808f5000060036006a30ef000500370043
:100d50000000000003003700000000000100370021
:100d60000000000010c0b3000080fa000000060080
:100d70000000fa00003a80000080fa00000006003f
:100d80000200fa00faff0700000f78001e0078004a
:100d9000240007000004e0000200320000002800e8
:100da000710007001e0078002a0007000004e00020
:100db00002003200000024006b0007001e007800d3
:100dc000320007000004e000020032000020200092
:100dd000650007001e0078003a0007000004e000ec
:100de00002003200000820005f0007001e007800ab
:100df000420007000004e00002003200000420006e
:100e0000590007001e0078004a0007000004e000b7
:100e10000200320000012000530007000080fa00a9
:100e2000000006000400fa00100798000040eb00e4
:100e3000004f78001e0090000000e00002003d001e
:100e400010c0b300004f78001e4078000080fa0008
:100e5000000006000400fa00100798000040eb00b4
:100e6000004f78009e009000000024000080600089
:100e70000000e0000200320010c0b300004f780014
:100e80001e4078000080fa00000006000400fa000e
:100e9000100798000040eb00004f78009e00900083
:100ea00000202000008060000000e000020032000e
:100eb00010c0b300004f78001e4078000080fa0098
:100ec000000006000400fa00100798000040eb0044
:100ed000004f78009e009000000820000080600015
:100ee0000000e0000200320010c0b300004f7800a4
:100ef0001e4078000080fa00000006000400fa009e
:100f0000100798000040eb00004f78009e00900012
:100f100000042000008060000000e00002003200b9
:100f200010c0b300004f78001e4078000080fa0027
:100f3000000006000400fa00100798000040eb00d3
:100f4000004f78001e009000700060000000e0007c
:100f50000200320010c0b300004f78001e4078003d
:100f60000080fa00000006000200fa00000f78007e
:100f70009e80ea00003a800000806000003a88000d
:100f80000080fa00000006000000fa004027ef0091
:080f90000080fa0000000600d9
:020000040000fa
:100f9800701000000200000082000000ffff000047
:100fa80044100000200000008000000064100000d1
:100fb8000c00000080000000001000004400000049
:100fc80082000000aaffff00ffffff00ffffff00f5
:100fd800ffffff00ffffff00ffffff00ffffff0015
:100fe800ffffff00ffffff00ffffff00ffffff0005
:100ff800ffffff00ffffff00ffffff00ffffff00f5
:10100800ffffff00ffffff00ffffff00ffffff00e4
:10101800ffffff00ffffff00ffff010001000000ce
:0410280000000000c4
:020000040000fa
:10102c000000fa0000102300203a88004827ef0047
:10103c004e27ef0020032000303a88006027ef0095
:10104c006227ef006427ef006627ef006a27ef00a6
:10105c006c27ef006e27ef00720020008007200045
:10106c00a109200033742000804978008149780060
:10107c00824978000001eb0060042000710520001b
:10108c0023742000804978008149780082497800d7
:10109c000080fa00000006000200fa00000f780041
:1010ac0021028000200f2000008060001e007000d4
:1010bc00200288000080fa00000006000000fa0000
:1010cc00c3e8a80000000000000000000080fa0047
:1010dc00000006000000fa00080007001a000700d4
:1010ec00cfff07007bfe0700f4ff07000002200083
:1010fc00e9ff07000080fa00000006000000fa007b
:10110c00042eef00182eef007001200000708800f4
:10111c000080eb00a07088000c2eef00202eef005a
:10112c000a2eef001e2eef00062eef001a2eef00f7
:10113c007001200070708800303820001071880019
:10114c000080fa00000006000000fa004142800016
:10115c00f0f82f00008060000040a00040428800a2
:10116c004142800080ff2f00008060000000a00042
:10117c00404288000080fa00000006000200fa00dd
:10118c00000f78009e00780081838800ffff3700f5
:10119c000000fa004004210080077800c0052100ff
:1011ac00000188000080fa00000006000000fa0030
:0811bc00c8ff0700ffff370028
:020000040000fa
:04af0000ffff00004f
:020000040000fa
:04af2000ffff00002f
:020000040000fa
:04af30007fff00009f
:020000040000fa
:04af3800bfff000057
:020000040000fa
:04af40009fff00006f
:020000040000fa
:04af4800ffff000007
:020000040000fa
:04af5000ffff0000ff
:020000040000fa
:04af580000000000f5
:020000040000fa
:04af600000000000ed
:020000040000fa
:04af680000000000e5
:020000040000fa
:04af700000000000dd
:020000040000fa
:04af7800feff0000d8
:020000040000fa
:04af8000ffff0000cf
:020000040000fa
:04af8800ffff0000c7
:00000001FF
