:020000040000fa
:080000000002040000000000f2
:020000040000fa
:04000800f004000000
:020000040000fa
:04000c00f0040000fc
:020000040000fa
:04001000f0040000f8
:020000040000fa
:04001400f0040000f4
:020000040000fa
:04001800f0040000f0
:020000040000fa
:04001c00f0040000ec
:020000040000fa
:04002000f0040000e8
:020000040000fa
:04002400f0040000e4
:020000040000fa
:040028008004000050
:020000040000fa
:04002c00f0040000dc
:020000040000fa
:04003000f0040000d8
:020000040000fa
:0400340012040000b2
:020000040000fa
:04003800f0040000d0
:020000040000fa
:04003c00f0040000cc
:020000040000fa
:04004000f0040000c8
:020000040000fa
:040044003a0400007a
:020000040000fa
:04004800540400005c
:020000040000fa
:04004c00f0040000bc
:020000040000fa
:04005000f0040000b8
:020000040000fa
:04005400f0040000b4
:020000040000fa
:04005800f0040000b0
:020000040000fa
:04005c00ca030000d3
:020000040000fa
:04006000f0040000a8
:020000040000fa
:04006400f0040000a4
:020000040000fa
:04006800fa02000098
:020000040000fa
:04006c00f00400009c
:020000040000fa
:04007000f004000098
:020000040000fa
:04007400f004000094
:020000040000fa
:04007800f004000090
:020000040000fa
:04007c00f00400008c
:020000040000fa
:04008000f004000088
:020000040000fa
:04008400f004000084
:020000040000fa
:04008800f004000080
:020000040000fa
:04008c00f00400007c
:020000040000fa
:04009000f004000078
:020000040000fa
:04009400f004000074
:020000040000fa
:04009800f004000070
:020000040000fa
:04009c00f00400006c
:020000040000fa
:0400a000f004000068
:020000040000fa
:0400a400f004000064
:020000040000fa
:0400a800f004000060
:020000040000fa
:0400ac00f00400005c
:020000040000fa
:0400b000f004000058
:020000040000fa
:0400b400f004000054
:020000040000fa
:0400b800f004000050
:020000040000fa
:0400bc00f00400004c
:020000040000fa
:0400c000f004000048
:020000040000fa
:0400c400f004000044
:020000040000fa
:0400c800f004000040
:020000040000fa
:0400cc00f00400003c
:020000040000fa
:0400d000f004000038
:020000040000fa
:0400d400f004000034
:020000040000fa
:0400d800f004000030
:020000040000fa
:0400dc00f00400002c
:020000040000fa
:0400e000f004000028
:020000040000fa
:0400e400f004000024
:020000040000fa
:0400e800f004000020
:020000040000fa
:0400ec00f00400001c
:020000040000fa
:0400f000f004000018
:020000040000fa
:0400f400f004000014
:020000040000fa
:0400f800f004000010
:020000040000fa
:0400fc00f00400000c
:020000040000fa
:04010000f004000007
:020000040000fa
:04010400f004000003
:020000040000fa
:04010800f0040000ff
:020000040000fa
:04010c00f0040000fb
:020000040000fa
:04011000f0040000f7
:020000040000fa
:04011400f0040000f3
:020000040000fa
:04011800f0040000ef
:020000040000fa
:04011c00f0040000eb
:020000040000fa
:04012000f0040000e7
:020000040000fa
:04012400f0040000e3
:020000040000fa
:04012800f0040000df
:020000040000fa
:04012c00f0040000db
:020000040000fa
:04013000f0040000d7
:020000040000fa
:04013400f0040000d3
:020000040000fa
:04013800f0040000cf
:020000040000fa
:04013c00f0040000cb
:020000040000fa
:04014000f0040000c7
:020000040000fa
:04014400f0040000c3
:020000040000fa
:04014800f0040000bf
:020000040000fa
:04014c00f0040000bb
:020000040000fa
:04015000f0040000b7
:020000040000fa
:04015400f0040000b3
:020000040000fa
:04015800f0040000af
:020000040000fa
:04015c00f0040000ab
:020000040000fa
:04016000f0040000a7
:020000040000fa
:04016400f0040000a3
:020000040000fa
:04016800f00400009f
:020000040000fa
:04016c00f00400009b
:020000040000fa
:04017000f004000097
:020000040000fa
:04017400f004000093
:020000040000fa
:04017800f00400008f
:020000040000fa
:04017c00f00400008b
:020000040000fa
:04018000f004000087
:020000040000fa
:04018400f004000083
:020000040000fa
:04018800f00400007f
:020000040000fa
:04018c00f00400007b
:020000040000fa
:04019000f004000077
:020000040000fa
:04019400f004000073
:020000040000fa
:04019800f00400006f
:020000040000fa
:04019c00f00400006b
:020000040000fa
:0401a000f004000067
:020000040000fa
:0401a400f004000063
:020000040000fa
:0401a800f00400005f
:020000040000fa
:0401ac00f00400005b
:020000040000fa
:0401b000f004000057
:020000040000fa
:0401b400f004000053
:020000040000fa
:0401b800f00400004f
:020000040000fa
:0401bc00f00400004b
:020000040000fa
:0401c000f004000047
:020000040000fa
:0401c400f004000043
:020000040000fa
:0401c800f00400003f
:020000040000fa
:0401cc00f00400003b
:020000040000fa
:0401d000f004000037
:020000040000fa
:0401d400f004000033
:020000040000fa
:0401d800f00400002f
:020000040000fa
:0401dc00f00400002b
:020000040000fa
:0401e000f004000027
:020000040000fa
:0401e400f004000023
:020000040000fa
:0401e800f00400001f
:020000040000fa
:0401ec00f00400001b
:020000040000fa
:0401f000f004000017
:020000040000fa
:0401f400f004000013
:020000040000fa
:0401f800f00400000f
:020000040000fa
:0401fc00f00400000b
:020000040000fa
:04020000f004000006
:020000040000fa
:04020400f004000002
:020000040000fa
:04020800f0040000fe
:020000040000fa
:04020c00f0040000fa
:020000040000fa
:04021000f0040000f6
:020000040000fa
:04021400f0040000f2
:020000040000fa
:04021800f0040000ee
:020000040000fa
:04021c00f0040000ea
:020000040000fa
:04022000f0040000e6
:020000040000fa
:04022400f0040000e2
:020000040000fa
:04022800f0040000de
:020000040000fa
:04022c00f0040000da
:020000040000fa
:04023000f0040000d6
:020000040000fa
:04023400f0040000d2
:020000040000fa
:04023800f0040000ce
:020000040000fa
:04023c00f0040000ca
:020000040000fa
:04024000f0040000c6
:020000040000fa
:04024400f0040000c2
:020000040000fa
:04024800f0040000be
:020000040000fa
:04024c00f0040000ba
:020000040000fa
:04025000f0040000b6
:020000040000fa
:04025400f0040000b2
:020000040000fa
:04025800f0040000ae
:020000040000fa
:04025c00f0040000aa
:020000040000fa
:04026000f0040000a6
:020000040000fa
:04026400f0040000a2
:020000040000fa
:04026800f00400009e
:020000040000fa
:04026c00f00400009a
:020000040000fa
:04027000f004000096
:020000040000fa
:04027400f004000092
:020000040000fa
:04027800f00400008e
:020000040000fa
:04027c00f00400008a
:020000040000fa
:04028000f004000086
:020000040000fa
:04028400f004000082
:020000040000fa
:04028800f00400007e
:020000040000fa
:04028c00f00400007a
:020000040000fa
:04029000f004000076
:020000040000fa
:04029400f004000072
:020000040000fa
:04029800f00400006e
:020000040000fa
:04029c00f00400006a
:020000040000fa
:0402a000f004000066
:020000040000fa
:0402a400f004000062
:020000040000fa
:0402a800f00400005e
:020000040000fa
:0402ac00f00400005a
:020000040000fa
:0402b000f004000056
:020000040000fa
:0402b400f004000052
:020000040000fa
:0402b800f00400004e
:020000040000fa
:0402bc00f00400004a
:020000040000fa
:0402c000f004000046
:020000040000fa
:0402c400f004000042
:020000040000fa
:0402c800f00400003e
:020000040000fa
:0402cc00f00400003a
:020000040000fa
:0402d000f004000036
:020000040000fa
:0402d400f004000032
:020000040000fa
:0402d800f00400002e
:020000040000fa
:0402dc00f00400002a
:020000040000fa
:0402e000f004000026
:020000040000fa
:0402e400f004000022
:020000040000fa
:0402e800f00400001e
:020000040000fa
:0402ec00f00400001a
:020000040000fa
:0402f000f004000016
:020000040000fa
:0402f400f004000012
:020000040000fa
:0402f800f00400000e
:020000040000fa
:0402fc00f00400000a
:020000040000fa
:04030000f004000005
:020000040000fa
:04030400f004000001
:020000040000fa
:04030800f0040000fd
:020000040000fa
:04030c00f0040000f9
:020000040000fa
:04031000f0040000f5
:020000040000fa
:100400006f8321000eff21000e0188000000000014
:10041000000020000000e000020032000001200087
:1004200020028800140007006f0107000000e000b0
:1004300003003a0080a320000100200002003700e2
:100440000000200001002000810f70000100320038
:100450000f000700000020000000e0000200320052
:1004600000000200000000009a06020000000000e8
:100470000040da000000fe00200020000000e00044
:1004800002003200100020009001880000000600e9
:10049000a1028800800478000000eb001f003700f4
:1004a000e284440054a0b4009905ba00e2844400f8
:1004b00054a0b4009906ba00e284440054a0b400e9
:1004c0000006eb00476fde00fd07b200ae018800ba
:1004d000636ce10003003a000ad801000000eb0061
:1004e0000e003700606ce10008003a00004deb00a0
:1004f0000a05e800020039003420ec000af0a000f0
:100500008b05e900f9ff3e00040037006168e10057
:10051000010032000086eb000b00070019c7ba008b
:100520000e04e0001905ba0003003a000a00e000da
:10053000dbff3a0000000600fe07b200ae028800b2
:100540008a047800f5ff37000cd0a300e20f4d00bd
:100550001c00390089027800354dba000a05e80010
:10056000020039003420ec000af0a0008b05e900fd
:100570000f003200254dba000a05e80002003900dc
:100580003420ec000af0a0008b05e90008003200de
:100590000c00e0000600320015cdba000a05e800a4
:1005a000020039003420ec000af0a0008b05e900bd
:1005b0008984e80054a0b4000b00e000e2ff3a0098
:1005c000000006009902ba00055d78008b05e9007d
:1005d000f7ff3200c82ade00055d78008b05e900d0
:1005e000f3ff32000c00e000f1ff320019ddba0029
:1005f000eeff37003600f800809fbe00829fbe00ed
:10060000849fbe00869fbe000000fa00104080005c
:10061000610060000000e000570032002010800000
:10062000640060000000e0000a003a002110800031
:1006300000022000008060000000e00005003a0099
:10064000701080000040780027f8b7000182a800f1
:100650004800370020108000640060000000e000c7
:100660000a003a0021108000000220000080600093
:100670000000e000050032007010800000407800ab
:1006800026f8b7000182a8003a0037002010800049
:10069000640060000000e0001200320021108000c1
:1006a00000022000008060000000e0000d003a0021
:1006b00091020700701080000040780027f8b70012
:1006c00051c1800030808000000040000080400068
:1006d000100078004800de00601088000182a80049
:1006e0002400370020108000640060000000e0005b
:1006f00020003200211080000002200000806000f5
:100700000000e0001b0032002110800000002800e3
:10071000008060000000e00016003a00760207004a
:10072000701080000040780027f8b70051c18000a9
:100730003080800000004000008040001000780001
:100740006010880040c180008000e9003080800097
:10075000808f500004003600308080000000e800e8
:10076000308088000200370010c0b30000f0b700ee
:100770000182a8000208a9000080fa004f03be0011
:100780004f02be004f01be004f00be003600f90010
:1007900000400600809fbe003200f8003400f800e0
:1007a00010002000a00188001000200090018800a7
:1007b000000000000000fa0001408000000022005c
:1007c000008060000000e00011003200a1c1800044
:1007d0002080800000004000008040000118800060
:1007e0000108780021808000e00f2000808f5000f9
:1007f00004003e00208080000000e8002080880087
:100800000200370010c0b30032f8b70001a8a900f9
:100810000080fa003400f9003200f9004f00be00f9
:10082000004006003600f800809fbe00829fbe0098
:10083000849fbe00869fbe000000fa00004080003a
:10084000680060000000e00003003200b102070011
:10085000b40207000068a9000080fa004f03be0040
:100860004f02be004f01be004f00be003600f9002f
:1008700000400600809fbe000000fa00014080009a
:1008800000082000008060000000e000030032004b
:1008900010c0b30001f0b70000e8a9000080fa0022
:1008a0004f00be00004006003600f800809fbe00ea
:1008b000829fbe00849fbe00869fbe000000fa009b
:1008c0000140800000102000008060000000e00077
:1008d00004003200c902070010c0b30002f0b700e4
:1008e0000108a9000080fa004f03be004f02be00bd
:1008f0004f01be004f00be003600f9000040060068
:100900003600f800809fbe00829fbe00849fbe001c
:10091000869fbe00881f78000000fa00004080001b
:10092000610060000000e0002500320010468000f9
:10093000610060000000e00002003a000e020700c3
:10094000130037001302070081c1800060c18000de
:10095000000040000084400013020700000c7800f3
:1009600060c180000000e80060c1880061c18000b3
:1009700070c18000808f5000040039009f02070082
:1009800010c0b30032f8b70001003700a002070022
:100990001046800000407800614060000004a20022
:1009a000614060000080fb00610060001146800033
:1009b0000100a10001007000104688000008a90095
:1009c0000080fa004f0478004f03be004f02be00c3
:1009d0004f01be004f00be003600f9000040060087
:0c09e0000040da000000fe0000000500ee
:020000040000fa
:1009ec000000fa0001e2a90001a2a9000182a800fe
:1009fc000162a9000142a9000122a8000102a8007d
:100a0c0000e2a90000c2a80000a2a90002c2a8002e
:100a1c0002a2a8000282a9000262a8000242a90058
:100a2c000222a9000202a9007000200030108800e8
:100a3c000822ef0010002000501088000208a900c6
:100a4c002208a9004142800080ff2f000080600036
:100a5c006000b300404288000080fa0000000600ed
:100a6c000200fa00000f78009e00780051c1880047
:100a7c000080fa00000006000200fa00000f780067
:100a8c009e00780041c188000080fa00000006003a
:100a9c000000fa0001e2a80000e2a8002208a80069
:100aac000080fa00000006000000fa0001e2a90034
:100abc0000e2a9002208a9000080fa00000006004c
:100acc000000fa0000c2a8000182a9000080fa0010
:100adc00000006000000fa0000c2a9000182a80074
:100aec000080fa00000006000200fa00000f7800f7
:100afc009e007800311088000080fa00000006008b
:100b0c000200fa00000f78009e0078004110880067
:100b1c000080fa00000006000000fa000222a80083
:100b2c000080fa00000006000000fa000222a90072
:100b3c000080fa00000006000000fa000202a80083
:100b4c000080fa00000006000000fa000202a90072
:100b5c000080fa00000006000000fa00211080005e
:100b6c00000028000080600000f0a7000000ea00f0
:100b7c000000e9004f00de00004078000080fa0021
:100b8c00000006000000fa00211080000000220086
:100b9c000080600000f0a7000000ea000000ea00fe
:100bac004f00de00004078000080fa0000000600d4
:100bbc000000fa002110800000202000008060005e
:100bcc0000f0a7000000ea000000ea004f00de0081
:100bdc00004078000080fa00000006000000fa00d7
:100bec0021108000000420000080600000f0a700ad
:100bfc000000ea000000ea004f00de000040780030
:100c0c000080fa00000006000000fa0021108000ad
:100c1c00000220000080600000f0a7000000ea0045
:100c2c000000ea004f00de00004078000080fa006f
:100c3c00000006000000fa00201080007000600028
:100c4c0000f0a7000000ea000000ea004f00de0000
:100c5c00004078000080fa00000006000000fa0056
:100c6c00201080006800600000f0a7000000ea007f
:100c7c000000ea004f00de00004078000080fa001f
:100c8c00000006000000fa002010800064006000e4
:100c9c0000f0a7000000ea000000ea004f00de00b0
:100cac00004078000080fa00000006000000fa0006
:100cbc00201080006200600000f0a7000000ea0035
:100ccc000000ea004f00de00004078000080fa00cf
:100cdc00000006000000fa00201080006100600097
:100cec0000f0a7000000ea000000ea004f00de0060
:100cfc00004078000080fa00000006000200fa00b4
:100d0c00004f78001e80fb00601088000080fa0005
:100d1c00000006000000fa0070108000004078000f
:100d2c000080fa00000006000400fa00ba01070077
:100d3c00dd0107003501070029ff0700b40007009b
:100d4c00d5000700f5000700010037000000000087
:100d5c0032d8bf000004e0003f00320009d0bf00d1
:100d6c000040e80009f0b70009d0bf00e54f500083
:100d7c0002003e0009d0bf00010037000040eb002c
:100d8c0009f0b700bf00070009d0bf000080fb00ce
:100d9c00e30f500019003200e30f500005003c0037
:100dac00e10f500008003200e20f50000d0032003d
:100dbc0023003700e40f500016003200e50f5000fe
:100dcc001a0032001e0037005c010700c000210031
:100ddc006e010700500020005d010700a200070013
:100dec001b003700c0202100680107000000eb0049
:100dfc00570107009c00070015003700c040210078
:100e0c006201070040002000510107009600070016
:100e1c000f003700c06021005c01070010002000ab
:100e2c004b01070090000700090037003e01070046
:100e3c00c1802100a00020005a01070004003700e7
:100e4c006b01070010c0b30008f0b70000000000f1
:100e5c000430ef003278ef0008d0bf000004e0004f
:100e6c001d0032000000eb00000f78000000eb00ca
:100e7c0010079800090037001e0090008000400009
:100e8c00c080210000804000100078001e0f400040
:100e9c001e0090000000e800100798001e00900053
:100eac00e90f5000f4ff36009e007800d0cc2c00e7
:100ebc000008b8004308de0000c18800bb00070032
:100ecc0010c18800bd00070020c188000870ef0029
:100edc0010c0b30000f0b70000d0bf000004e00069
:100eec003a0032000ad0bf000040e8000af0b70018
:100efc000ad0bf00e54f500002003e000ad0bf00f0
:100f0c00010037000040eb000af0b7007e0007003c
:100f1c000ad0bf000080fb00e30f50001700320026
:100f2c00e30f500005003c00e10f500008003200b8
:100f3c00e20f50000d0032001e003700e40f50008d
:100f4c0012003200e50f5000140032001900370077
:100f5c00cffe070000102000c7fe0700c0002100d4
:100f6c00bffe07006100070016003700c0202100fb
:100f7c00bbfe07005d00070012003700c0402100d7
:100f8c00b7fe0700590007000e003700c0602100b3
:100f9c00b3fe0700550007000a00370030002000a0
:100fac00b5fe070000822100adfe07004f000700d0
:100fbc0004003700bcfe070010c0b30032f8b700c5
:100fcc00000000000630ef000070ef0001d0bf0001
:100fdc000004e0000500320010c0b30000f0b700c0
:100fec0050c0b3000af0b7000170ef0002d0bf0090
:100ffc000004e00055ff320010c0b30032f8b70017
:10100c0050c0b30009f0b7000270ef0050ff37007a
:10101c000000fa000021ef00800720001008880073
:10102c0005e1a9000421a90004c1a9002108800040
:10103c00f0fc2f00008060000040a0002008880019
:10104c0001428000f0ff2800808060000000250035
:10105c0001007000004288000068a9002068a90007
:10106c000080fa00000006000000fa0005e1a9006b
:10107c000021ef002068a80005e1a8000080fa001c
:10108c00000006000000fa0005e1a9002068a90094
:10109c000080fa00000006000000fa000621ef00b4
:1010ac00b08323006008880011e1a9001021a90079
:1010bc0010c1a9008108800000032000010070000d
:1010cc00800888001061a90011428000f0ff280000
:1010dc000080600000e0a0001042880000e8a90039
:1010ec0020e8a9000080fa00000006000000fa00c9
:1010fc0011e1a9000621ef0020e8a80011e1a800e9
:10110c000080fa00000006000000fa0011e1a900be
:10111c0020e8a9000080fa00000006000000fa0098
:10112c000a21ef00000f20007008880013e1a900cd
:10113c001221a90012c1a90091088000000320000f
:10114c0001007000900888002142800080ff2f0071
:10115c00008060003000b300204288000108a90024
:10116c002108a9000080fa00000006000000fa0027
:10117c0013e1a9000a21ef002108a80013e1a8003f
:10118c000080fa00000006000000fa0013e1a9003c
:10119c002108a9000080fa00000006000000fa00f7
:1011ac00500880000080fa00000006000000fa00e1
:1011bc00700880000080fa00000006000000fa00b1
:1011cc00900880004400de00634060000080fb005b
:1011dc00e20f500006003200e30f50000600320010
:1011ec00e10f500006003a00800020000500370097
:1011fc00000420000300370000102000010037001d
:10120c00100020000080fa00000006000000fa0028
:10121c0021e3a9002143a90001198000f0cf2f0080
:10122c00008060000019880001198000f0f12f0087
:10123c0000806000001988002063a9002043a800ea
:10124c002003a90011198000f0ff2100008060002c
:10125c00101988002343a90011198000f0cf2f002a
:10126c0000806000101988002203a90025e3a90062
:10127c00a0c0b30024e3b70021198000f00f2e00aa
:10128c008080600000e021000100700020198800bf
:10129c0021a3a8002083a9001119800030f82f0089
:1012ac0000806000101988004119800000fc2f009c
:1012bc00008060004019880028e3a9003023ef006b
:1012cc0001a8a90021a8a900314280000007200034
:1012dc0001007000304288000080fa000000060017
:1012ec000000fa00001980006100600000f0a70007
:1012fc000000ea000000ea004f00de000040780029
:10130c000080fa00000006000000fa002003a9008b
:10131c000080fa00000006000000fa002023a9005b
:10132c000080fa00000006000000fa0021e3a9008a
:10133c0021a8a9000080fa00000006000000fa00b5
:10134c0021e3a80021a8a8000080fa0000000600f4
:10135c000200fa00000f78001e00780000407800b0
:10136c00f043b2008080fb00f0032000008060009e
:10137c004219800001fc2f00810061000100700007
:10138c00401988000080fa00000006000200fa00f4
:10139c00000f78009e007800a1c188000080fa0040
:1013ac00000006000400fa00000f780011079800f6
:1013bc002c38ef009e00780071c188009e009000d0
:1013cc0081c188000008a9000142800080ff2f0025
:1013dc00008060006000b30000428800c208a900d1
:1013ec0062ff07002008a8000080fa000000060039
:1013fc000000fa0064ff07002008a9000080fa0032
:10140c00000006000000fa0058ff07002008a800a2
:10141c000080fa00000006000000fa00042eef0025
:10142c00182eef003000200000708800c00e200045
:10143c00a07088000c2eef00202eef000a2eef007b
:10144c001e2eef00062eef001a2eef0030002000ab
:10145c0070708800c0002000107188000080fa00b5
:04146c000000060076
:020000040000fa
:10147000261800000600000080000000321800005e
:1014800002000000820000000100000000100000c7
:101490002608000080000000341800000200000050
:1014a000800000002c1800000600000080000000f2
:0414b0000000000038
:020000040000fa
:1014b4000000fa00c3e8a800c1e8a9000080fa000f
:1014c400000006000000fa00c3e8a9000080fa004a
:0414d400000006000e
:020000040000fa
:04af0000ffff00004f
:020000040000fa
:04af2000ffff00002f
:020000040000fa
:04af3000ffff00001f
:020000040000fa
:04af3800bfff000057
:020000040000fa
:04af4000ffff00000f
:020000040000fa
:04af4800ffff000007
:020000040000fa
:04af5000ffff0000ff
:020000040000fa
:04af5800ffff0000f7
:020000040000fa
:04af6000ffff0000ef
:020000040000fa
:04af6800ffff0000e7
:020000040000fa
:04af7000ffff0000df
:020000040000fa
:04af7800ffff0000d7
:020000040000fa
:04af8000ffff0000cf
:020000040000fa
:04af8800ffff0000c7
:00000001FF
