:020000040000fa
:080000000002040000000000f2
:020000040000fa
:04000800ea05000005
:020000040000fa
:04000c00ea05000001
:020000040000fa
:04001000ea050000fd
:020000040000fa
:04001400ea050000f9
:020000040000fa
:04001800ea050000f5
:020000040000fa
:04001c00ea050000f1
:020000040000fa
:04002000ea050000ed
:020000040000fa
:04002400ea050000e9
:020000040000fa
:040028007a05000055
:020000040000fa
:04002c00ea050000e1
:020000040000fa
:04003000ea050000dd
:020000040000fa
:040034000c050000b7
:020000040000fa
:04003800ea050000d5
:020000040000fa
:04003c00ea050000d1
:020000040000fa
:04004000ea050000cd
:020000040000fa
:04004400340500007f
:020000040000fa
:040048004e05000061
:020000040000fa
:04004c00ea050000c1
:020000040000fa
:04005000ea050000bd
:020000040000fa
:04005400ea050000b9
:020000040000fa
:04005800ea050000b5
:020000040000fa
:04005c00b4040000e8
:020000040000fa
:04006000ea050000ad
:020000040000fa
:04006400ea050000a9
:020000040000fa
:04006800fa02000098
:020000040000fa
:04006c00ea050000a1
:020000040000fa
:04007000ea0500009d
:020000040000fa
:04007400ea05000099
:020000040000fa
:04007800ea05000095
:020000040000fa
:04007c00ea05000091
:020000040000fa
:04008000ea0500008d
:020000040000fa
:04008400ea05000089
:020000040000fa
:04008800ea05000085
:020000040000fa
:04008c00ea05000081
:020000040000fa
:04009000ea0500007d
:020000040000fa
:04009400ea05000079
:020000040000fa
:04009800ea05000075
:020000040000fa
:04009c00ea05000071
:020000040000fa
:0400a000ea0500006d
:020000040000fa
:0400a400ea05000069
:020000040000fa
:0400a800ea05000065
:020000040000fa
:0400ac00ea05000061
:020000040000fa
:0400b000ea0500005d
:020000040000fa
:0400b400ea05000059
:020000040000fa
:0400b800ea05000055
:020000040000fa
:0400bc00ea05000051
:020000040000fa
:0400c000ea0500004d
:020000040000fa
:0400c400ea05000049
:020000040000fa
:0400c800ea05000045
:020000040000fa
:0400cc00ea05000041
:020000040000fa
:0400d000ea0500003d
:020000040000fa
:0400d400ea05000039
:020000040000fa
:0400d800ea05000035
:020000040000fa
:0400dc00ea05000031
:020000040000fa
:0400e000ea0500002d
:020000040000fa
:0400e400ea05000029
:020000040000fa
:0400e800ea05000025
:020000040000fa
:0400ec00ea05000021
:020000040000fa
:0400f000ea0500001d
:020000040000fa
:0400f400ea05000019
:020000040000fa
:0400f800ea05000015
:020000040000fa
:0400fc00ea05000011
:020000040000fa
:04010000ea0500000c
:020000040000fa
:04010400ea05000008
:020000040000fa
:04010800ea05000004
:020000040000fa
:04010c00ea05000000
:020000040000fa
:04011000ea050000fc
:020000040000fa
:04011400ea050000f8
:020000040000fa
:04011800ea050000f4
:020000040000fa
:04011c00ea050000f0
:020000040000fa
:04012000ea050000ec
:020000040000fa
:04012400ea050000e8
:020000040000fa
:04012800ea050000e4
:020000040000fa
:04012c00ea050000e0
:020000040000fa
:04013000ea050000dc
:020000040000fa
:04013400ea050000d8
:020000040000fa
:04013800ea050000d4
:020000040000fa
:04013c00ea050000d0
:020000040000fa
:04014000ea050000cc
:020000040000fa
:04014400ea050000c8
:020000040000fa
:04014800ea050000c4
:020000040000fa
:04014c00ea050000c0
:020000040000fa
:04015000ea050000bc
:020000040000fa
:04015400ea050000b8
:020000040000fa
:04015800ea050000b4
:020000040000fa
:04015c00ea050000b0
:020000040000fa
:04016000ea050000ac
:020000040000fa
:04016400ea050000a8
:020000040000fa
:04016800ea050000a4
:020000040000fa
:04016c00ea050000a0
:020000040000fa
:04017000ea0500009c
:020000040000fa
:04017400ea05000098
:020000040000fa
:04017800ea05000094
:020000040000fa
:04017c00ea05000090
:020000040000fa
:04018000ea0500008c
:020000040000fa
:04018400ea05000088
:020000040000fa
:04018800ea05000084
:020000040000fa
:04018c00ea05000080
:020000040000fa
:04019000ea0500007c
:020000040000fa
:04019400ea05000078
:020000040000fa
:04019800ea05000074
:020000040000fa
:04019c00ea05000070
:020000040000fa
:0401a000ea0500006c
:020000040000fa
:0401a400ea05000068
:020000040000fa
:0401a800ea05000064
:020000040000fa
:0401ac00ea05000060
:020000040000fa
:0401b000ea0500005c
:020000040000fa
:0401b400ea05000058
:020000040000fa
:0401b800ea05000054
:020000040000fa
:0401bc00ea05000050
:020000040000fa
:0401c000ea0500004c
:020000040000fa
:0401c400ea05000048
:020000040000fa
:0401c800ea05000044
:020000040000fa
:0401cc00ea05000040
:020000040000fa
:0401d000ea0500003c
:020000040000fa
:0401d400ea05000038
:020000040000fa
:0401d800ea05000034
:020000040000fa
:0401dc00ea05000030
:020000040000fa
:0401e000ea0500002c
:020000040000fa
:0401e400ea05000028
:020000040000fa
:0401e800ea05000024
:020000040000fa
:0401ec00ea05000020
:020000040000fa
:0401f000ea0500001c
:020000040000fa
:0401f400ea05000018
:020000040000fa
:0401f800ea05000014
:020000040000fa
:0401fc00ea05000010
:020000040000fa
:04020000ea0500000b
:020000040000fa
:04020400ea05000007
:020000040000fa
:04020800ea05000003
:020000040000fa
:04020c00ea050000ff
:020000040000fa
:04021000ea050000fb
:020000040000fa
:04021400ea050000f7
:020000040000fa
:04021800ea050000f3
:020000040000fa
:04021c00ea050000ef
:020000040000fa
:04022000ea050000eb
:020000040000fa
:04022400ea050000e7
:020000040000fa
:04022800ea050000e3
:020000040000fa
:04022c00ea050000df
:020000040000fa
:04023000ea050000db
:020000040000fa
:04023400ea050000d7
:020000040000fa
:04023800ea050000d3
:020000040000fa
:04023c00ea050000cf
:020000040000fa
:04024000ea050000cb
:020000040000fa
:04024400ea050000c7
:020000040000fa
:04024800ea050000c3
:020000040000fa
:04024c00ea050000bf
:020000040000fa
:04025000ea050000bb
:020000040000fa
:04025400ea050000b7
:020000040000fa
:04025800ea050000b3
:020000040000fa
:04025c00ea050000af
:020000040000fa
:04026000ea050000ab
:020000040000fa
:04026400ea050000a7
:020000040000fa
:04026800ea050000a3
:020000040000fa
:04026c00ea0500009f
:020000040000fa
:04027000ea0500009b
:020000040000fa
:04027400ea05000097
:020000040000fa
:04027800ea05000093
:020000040000fa
:04027c00ea0500008f
:020000040000fa
:04028000ea0500008b
:020000040000fa
:04028400ea05000087
:020000040000fa
:04028800ea05000083
:020000040000fa
:04028c00ea0500007f
:020000040000fa
:04029000ea0500007b
:020000040000fa
:04029400ea05000077
:020000040000fa
:04029800ea05000073
:020000040000fa
:04029c00ea0500006f
:020000040000fa
:0402a000ea0500006b
:020000040000fa
:0402a400ea05000067
:020000040000fa
:0402a800ea05000063
:020000040000fa
:0402ac00ea0500005f
:020000040000fa
:0402b000ea0500005b
:020000040000fa
:0402b400ea05000057
:020000040000fa
:0402b800ea05000053
:020000040000fa
:0402bc00ea0500004f
:020000040000fa
:0402c000ea0500004b
:020000040000fa
:0402c400ea05000047
:020000040000fa
:0402c800ea05000043
:020000040000fa
:0402cc00ea0500003f
:020000040000fa
:0402d000ea0500003b
:020000040000fa
:0402d400ea05000037
:020000040000fa
:0402d800ea05000033
:020000040000fa
:0402dc00ea0500002f
:020000040000fa
:0402e000ea0500002b
:020000040000fa
:0402e400ea05000027
:020000040000fa
:0402e800ea05000023
:020000040000fa
:0402ec00ea0500001f
:020000040000fa
:0402f000ea0500001b
:020000040000fa
:0402f400ea05000017
:020000040000fa
:0402f800ea05000013
:020000040000fa
:0402fc00ea0500000f
:020000040000fa
:04030000ea0500000a
:020000040000fa
:04030400ea05000006
:020000040000fa
:04030800ea05000002
:020000040000fa
:04030c00ea050000fe
:020000040000fa
:04031000ea050000fa
:020000040000fa
:10040000cf8321000eff21000e01880000000000b4
:10041000000020000000e000020032000001200087
:100420002002880014000700ec0107000000e00033
:1004300003003a0020ab200001002000020037003a
:100440000000200001002000810f70000100320038
:100450000f000700000020000000e0000200320052
:1004600000000200000000008807020000000000f9
:100470000040da000000fe00200020000000e00044
:1004800002003200100020009001880000000600e9
:10049000a1028800800478000000eb001f003700f4
:1004a000e284440054a0b4009905ba00e2844400f8
:1004b00054a0b4009906ba00e284440054a0b400e9
:1004c0000006eb00476fde00fd07b200ae018800ba
:1004d000636ce10003003a000ad801000000eb0061
:1004e0000e003700606ce10008003a00004deb00a0
:1004f0000a05e800020039003420ec000af0a000f0
:100500008b05e900f9ff3e00040037006168e10057
:10051000010032000086eb000b00070019c7ba008b
:100520000e04e0001905ba0003003a000a00e000da
:10053000dbff3a0000000600fe07b200ae028800b2
:100540008a047800f5ff37000cd0a300e20f4d00bd
:100550001c00390089027800354dba000a05e80010
:10056000020039003420ec000af0a0008b05e900fd
:100570000f003200254dba000a05e80002003900dc
:100580003420ec000af0a0008b05e90008003200de
:100590000c00e0000600320015cdba000a05e800a4
:1005a000020039003420ec000af0a0008b05e900bd
:1005b0008984e80054a0b4000b00e000e2ff3a0098
:1005c000000006009902ba00055d78008b05e9007d
:1005d000f7ff3200c82ade00055d78008b05e900d0
:1005e000f3ff32000c00e000f1ff320019ddba0029
:1005f000eeff37003600f800809fbe00829fbe00ed
:10060000849fbe00869fbe000000fa00104080005c
:10061000610060000000e000cc003200201080008b
:10062000640060000000e0000a003a002110800031
:1006300000022000008060000000e00005003a0099
:10064000701080000040780026f8b7000182a800f2
:10065000bd00370020108000640060000000e00052
:100660001a003a0021108000000220000080600083
:100670000000e0001500320021108000000028007a
:10068000008060000000e00010003a007010800060
:100690000040780026f8b70038d8bf000004e0001a
:1006a0000400320026d8bf002cf8b7003878ef00dd
:1006b0000400370026d8bf002df8b70010c0b300e3
:1006c00038f8b7000182a8009f0037002010800092
:1006d000640060000000e00048003200211080004b
:1006e00000022000008060000000e00043003a00ab
:1006f000d1020700701080000040780026f8b70093
:100700002cd8bf000080fb00e20f50001e0032001a
:10071000e20f500005003c000000e000080032003d
:10072000e10f50000f00320032003700e30f50009d
:100730001e003200e40f5000250032002d0037006b
:100740002dd8bf000080fb0080004000c0002100c9
:1007500000804000100078004800de006010880033
:10076000240037002dd8bf000080fb00800040002f
:10077000c020210000804000100078004800de000a
:10078000601088001b0037002dd8bf000080fb00e0
:1007900080004000c0402100008040001000780030
:1007a0004800de0060108800120037002dd8bf001e
:1007b0000080fb0080004000c060210000804000fd
:1007c000100078004800de00601088000900370043
:1007d0002dd8bf000080fb00800040000082210077
:1007e00000804000100078004800de0060108800a3
:1007f000000000000182a800530037002010800094
:10080000640060000000e0004f0032002110800012
:1008100000022000008060000000e0004a0032007a
:100820002110800000002800008060000000e0002f
:1008300045003a00800207007010800000407800f8
:1008400026f8b7002cd8bf000080fb00e20f500054
:100850001c003200e20f500005003c000000e000e8
:1008600008003200e10f50000e0032002d0037006a
:10087000e30f50001b003200e40f50002100320053
:10088000280037002dd8bf000080fb00800040000a
:10089000c000210000804000100078006010880037
:1008a000200037002dd8bf000080fb0080004000f2
:1008b000c0202100008040001000780060108800f7
:1008c000180037002dd8bf000080fb0080004000da
:1008d000c0402100008040001000780060108800b7
:1008e000100037002dd8bf000080fb0080004000c2
:1008f000c060210000804000100078006010880077
:10090000080037002dd8bf000080fb0080004000a9
:1009100000822100008040001000780060108800f4
:10092000000000002cd8bf00e44f500005003a0042
:100930002dd8bf00e24f500002003a0010c0b300b3
:1009400000f0b7000182a8000208a9000080fa00a8
:100950004f03be004f02be004f01be004f00be005d
:100960003600f90000400600809fbe003200f8000b
:100970003400f80010002000a001880010002000c2
:1009800090018800000000000000fa000140800093
:1009900000002200008060000000e000190032002a
:1009a000a1c1800020808000000040000080400045
:1009b000011880000108780021808000e00f2000ed
:1009c000808f50000b003e0036d8bf00e54f50002e
:1009d00004003600208080000000e80020808800ad
:1009e0000700370036d8bf000040e80036f8b700ef
:1009f0000300370010c0b3003af8b7003678ef00b4
:100a000001a8a9000080fa003400f9003200f900c2
:100a10004f00be00004006003600f800809fbe0078
:100a2000829fbe00849fbe00869fbe000000fa0029
:100a300000408000680060000000e0000300320019
:100a400084020700870207000068a9000080fa00fe
:100a50004f03be004f02be004f01be004f00be005c
:100a60003600f90000400600809fbe000000fa003a
:100a70000140800000082000008060000000e000cd
:100a80000300320010c0b30001f0b70000e8a90075
:100a90000080fa004f00be00004006003600f8005b
:100aa000809fbe00829fbe00849fbe00869fbe00c6
:100ab0000000fa000140800000102000008060006b
:100ac0000000e000040032009c02070010c0b300e8
:100ad00002f0b7000108a9000080fa004f03be0031
:100ae0004f02be004f01be004f00be003600f900ad
:100af000004006003600f800809fbe00829fbe00c6
:100b0000849fbe00869fbe00881f78000000fa0008
:100b100000408000610060000000e000250032001d
:100b200010468000610060000000e00002003a0012
:100b3000e101070013003700e601070091c18000c2
:100b400070c180000000400000844000e601070002
:100b5000000c780070c180000000e80070c18800bf
:100b600071c1800080c18000808f50000400390076
:100b70007202070010c0b3003af8b7000100370056
:100b8000730207001046800000407800614060005a
:100b90000004a200614060000080fb006100600072
:100ba000114680000100a10001007000104688007d
:100bb0000008a9000080fa004f0478004f03be002f
:100bc0004f02be004f01be004f00be003600f900cc
:100bd000004006000040da000000fe0000000500b2
:020000040000fa
:100be0000000fa0001e2a90001a2a9000182a80008
:100bf0000162a9000142a9000122a8000102a80087
:100c000000e2a90000c2a80000a2a90002c2a90037
:100c100002a2a9000282a9000262a8000242a90061
:100c20000222a9000202a9007000200030108800f2
:100c30000822ef0010002000501088000208a900d0
:100c40002208a9004142800080ff2f000080600040
:100c50006000b300404288000080fa0000000600f7
:100c60000200fa00000f78009e00780041c1880061
:100c70000080fa00000006000000fa0001e2a8006f
:100c800000e2a8002208a8000080fa000000060088
:100c90000000fa0001e2a90000e2a9002208a90070
:100ca0000080fa00000006000000fa0000c2a80060
:100cb0000182a9000080fa00000006000000fa008e
:100cc00000c2a9000182a8000080fa00000006000e
:100cd0000200fa00000f78009e00780031108800b2
:100ce0000080fa00000006000200fa00000f780001
:100cf0009e007800411088000080fa000000060085
:100d00000000fa000222a8000080fa00000006009d
:100d10000000fa000222a9000080fa00000006008c
:100d20000000fa000202a8000080fa00000006009d
:100d30000000fa000202a9000080fa00000006008c
:100d40000000fa00211080000000280000806000f0
:100d500000f0a7000000ea000000e9004f00de00fc
:100d6000004078000080fa00000006000000fa0051
:100d700021108000000022000080600000f0a70029
:100d80000000ea000000ea004f00de0000407800aa
:100d90000080fa00000006000000fa002110800028
:100da000002020000080600000f0a7000000ea00a2
:100db0000000ea004f00de00004078000080fa00ea
:100dc000000006000000fa0021108000000420004e
:100dd0000080600000f0a7000000ea000000ea00c8
:100de0004f00de00004078000080fa00000006009e
:100df0000000fa0021108000000220000080600046
:100e000000f0a7000000ea000000ea004f00de004a
:100e1000004078000080fa00000006000000fa00a0
:100e2000201080007000600000f0a7000000ea00c1
:100e30000000ea004f00de00004078000080fa0069
:100e4000000006000000fa0020108000680060002a
:100e500000f0a7000000ea000000ea004f00de00fa
:100e6000004078000080fa00000006000000fa0050
:100e7000201080006400600000f0a7000000ea007d
:100e80000000ea004f00de00004078000080fa0019
:100e9000000006000000fa002010800062006000e0
:100ea00000f0a7000000ea000000ea004f00de00aa
:100eb000004078000080fa00000006000000fa0000
:100ec000201080006100600000f0a7000000ea0030
:100ed0000000ea004f00de00004078000080fa00c9
:100ee000000006000200fa00004f78001e80fb00a0
:100ef000601088000080fa00000006000000fa0080
:100f000070108000004078000080fa0000000600a9
:100f10000400fa00a8010700ba0107000e0107004b
:100f20002fff07008d000700ae000700ce0007006e
:100f300001003700000000003ad8bf000004e000c4
:100f40003f00320009d0bf000040e80009f0b700c0
:100f500009d0bf00e54f500002003e0009d0bf009d
:100f6000010037000040eb0009f0b70098000700cf
:100f700009d0bf000080fb00e30f500019003200d1
:100f8000e30f500005003c00e10f50000800320064
:100f9000e20f50000d00320023003700e40f500034
:100fa00016003200e50f50001a0032001e00370014
:100fb00035010700c0002100470107005000200054
:100fc000360107007b0007001b003700c02021000e
:100fd000410107000000eb00300107007500070029
:100fe00015003700c04021003b01070040002000f1
:100ff0002a0107006f0007000f003700c0602100c2
:1010000035010700100020002401070069000700d7
:101010000900370017010700c1802100a00020004f
:1010200033010700040037004401070010c0b3007b
:1010300008f0b700000000000430ef003a78ef003d
:1010400008d0bf000004e0001d0032000000eb00eb
:10105000000f78000000eb0010079800090037002f
:101060001e00900080004000c080210000804000f1
:10107000100078001e0f40001e0090000000e800e5
:10108000100798001e009000e90f5000f4ff360092
:101090009e007800d0cc2c000008b8004308de0089
:1010a00000c188009400070010c188009600070066
:1010b00020c188000870ef0010c0b30000f0b70036
:1010c00000d0bf000004e000170032000ad0bf00cb
:1010d0000040e8000af0b7000ad0bf00e14f50001e
:1010e00002003e000ad0bf00010037000040eb00c4
:1010f0000af0b700570007000ad0bf000080fb00cd
:10110000e10f500002003a00dbfe07000400370048
:10111000dffe070010c0b3003af8b700000000007f
:101120000630ef000070ef0001d0bf000004e000c7
:10113000010032000170ef0002d0bf000004e000a7
:101140007cff320010c0b3003af8b70050c0b300c3
:1011500009f0b7000270ef0077ff37000000fa00d7
:101160000021ef00000f20001008880005e1a90011
:101170000421a90004c1a90021088000f0fc2f006f
:10118000008060000040a00020088800014280002c
:10119000f0ff280080806000000025000100700042
:1011a000004288000068a9002068a9000080fa00b9
:1011b000000006000000fa0005e1a9000021ef0090
:1011c0002068a80005e1a8000080fa0000000600e1
:1011d0000000fa0005e1a9002068a9000080fa00db
:1011e000000006000000fa000621ef00b083230093
:1011f0006008880011e1a9001021a90010c1a90010
:101200008108800000032000010070008008880031
:101210001061a90011428000f0ff280000806000ea
:1012200000e0a0001042880000e8a90020e8a90022
:101230000080fa00000006000000fa0011e1a90099
:101240000621ef0020e8a80011e1a8000080fa00c4
:10125000000006000000fa0011e1a90020e8a90042
:101260000080fa00000006000000fa000a21ef00ea
:10127000000f20007008880013e1a9001221a900c6
:1012800012c1a90091088000000320000100700035
:10129000900888002142800080ff2f0000806000bd
:1012a0003000b300204288000108a9002108a900ed
:1012b0000080fa00000006000000fa0013e1a90017
:1012c0000a21ef002108a80013e1a8000080fa001d
:1012d000000006000000fa0013e1a9002108a9009f
:1012e0000080fa00000006000000fa0050088000ac
:1012f0000080fa00000006000000fa00700880007c
:101300000080fa00000006000000fa00900880004b
:101310004400de00634060000080fb00e20f5000ec
:1013200006003200e30f500006003200e10f5000cb
:1013300006003a008000200005003700000420006d
:1013400003003700001020000100370010002000cb
:101350000080fa00000006000000fa0021e3a90066
:101360002143a80001198000f0cf2f000080600009
:101370000019880001198000f0f12f000080600042
:10138000001988002063a9002043a8002003a900b9
:1013900011198000f0ff2100008060001019880002
:1013a0002343a90011198000f0cf2f0000806000b6
:1013b000101988002203a90025e3a90020c3b30067
:1013c00024e3b70021198000f00f2e008080600018
:1013d00000e02100010070002019880021a3a8006e
:1013e0002083a9001119800030f82f0000806000d0
:1013f000101988004119800000fc2f000080600057
:101400004019880028e3a9003023ef0001a8a900b3
:1014100021a8a900314280000007200001007000cf
:10142000304288000080fa00000006000000fa0048
:10143000001980006100600000f0a7000000ea00d1
:101440000000ea004f00de00004078000080fa0053
:10145000000006000000fa002003a9000080fa0046
:10146000000006000000fa002023a9000080fa0016
:10147000000006000000fa0021e3a90021a8a9004d
:101480000080fa00000006000000fa0021e3a80036
:1014900021a8a8000080fa00000006000200fa005f
:1014a000000f78001e00780000407800f043b20082
:1014b0008080fb00f0032000008060004219800063
:1014c00001fc2f00810061000100700040198800bc
:1014d0000080fa00000006000200fa00000f780009
:1014e0009e007800a1c188000080fa00000006007c
:1014f0000400fa00000f7800110798002e38ef0062
:101500009e00780081c188009e00900091c18800f3
:101510000008a9000142800080ff2f0000806000c9
:101520006000b30000428800c208a90062ff070003
:101530002008a8000080fa00000006000000fa0061
:1015400064ff07002008a9000080fa0000000600e0
:101550000000fa0058ff07002008a8000080fa00e9
:041560000000060081
:020000040000fa
:101564002618000008000000800000003818000061
:101574000200000082000000010000003a18000090
:1015840002000000820000000100000000100000c2
:101594002608000080000000341800000400000049
:1015a400800000002e1800000600000080000000eb
:0415b4000000000033
:020000040000fa
:1015b8000000fa00042eef00182eef003000200083
:1015c80000708800c00e2000a07088000c2eef006c
:1015d800202eef000a2eef001e2eef00062eef0041
:1015e8001a2eef003000200070708800c000200024
:1015f800107188000080fa00000006000000fa0060
:10160800c3e8a800c1e8a9000080fa0000000600ad
:101618000000fa00c3e8a9000080fa0000000600f4
:020000040000fa
:04af0000ffff00004f
:020000040000fa
:04af2000ffff00002f
:020000040000fa
:04af3000ffff00001f
:020000040000fa
:04af3800bfff000057
:020000040000fa
:04af4000ffff00000f
:020000040000fa
:04af4800ffff000007
:020000040000fa
:04af5000ffff0000ff
:020000040000fa
:04af5800ffff0000f7
:020000040000fa
:04af6000ffff0000ef
:020000040000fa
:04af6800ffff0000e7
:020000040000fa
:04af7000ffff0000df
:020000040000fa
:04af7800ffff0000d7
:020000040000fa
:04af8000ffff0000cf
:020000040000fa
:04af8800ffff0000c7
:00000001FF
