:020000040000fa
:080000000002040000000000f2
:020000040000fa
:04000800940300005d
:020000040000fa
:04000c009403000059
:020000040000fa
:040010009403000055
:020000040000fa
:040014009403000051
:020000040000fa
:04001800940300004d
:020000040000fa
:04001c009403000049
:020000040000fa
:040020009403000045
:020000040000fa
:040024009403000041
:020000040000fa
:04002800940300003d
:020000040000fa
:04002c009403000039
:020000040000fa
:040030009403000035
:020000040000fa
:040034009403000031
:020000040000fa
:04003800940300002d
:020000040000fa
:04003c009403000029
:020000040000fa
:040040009403000025
:020000040000fa
:040044009403000021
:020000040000fa
:04004800940300001d
:020000040000fa
:04004c009403000019
:020000040000fa
:040050009403000015
:020000040000fa
:040054009403000011
:020000040000fa
:04005800940300000d
:020000040000fa
:04005c009403000009
:020000040000fa
:040060009403000005
:020000040000fa
:040064009403000001
:020000040000fa
:04006800fa02000098
:020000040000fa
:04006c0094030000f9
:020000040000fa
:0400700094030000f5
:020000040000fa
:0400740094030000f1
:020000040000fa
:0400780094030000ed
:020000040000fa
:04007c0094030000e9
:020000040000fa
:0400800094030000e5
:020000040000fa
:0400840094030000e1
:020000040000fa
:0400880094030000dd
:020000040000fa
:04008c0094030000d9
:020000040000fa
:0400900094030000d5
:020000040000fa
:0400940094030000d1
:020000040000fa
:0400980094030000cd
:020000040000fa
:04009c0094030000c9
:020000040000fa
:0400a00094030000c5
:020000040000fa
:0400a40094030000c1
:020000040000fa
:0400a80094030000bd
:020000040000fa
:0400ac0094030000b9
:020000040000fa
:0400b00094030000b5
:020000040000fa
:0400b40094030000b1
:020000040000fa
:0400b80094030000ad
:020000040000fa
:0400bc0094030000a9
:020000040000fa
:0400c00094030000a5
:020000040000fa
:0400c40094030000a1
:020000040000fa
:0400c800940300009d
:020000040000fa
:0400cc009403000099
:020000040000fa
:0400d0009403000095
:020000040000fa
:0400d4009403000091
:020000040000fa
:0400d800940300008d
:020000040000fa
:0400dc009403000089
:020000040000fa
:0400e0009403000085
:020000040000fa
:0400e4009403000081
:020000040000fa
:0400e800940300007d
:020000040000fa
:0400ec009403000079
:020000040000fa
:0400f0009403000075
:020000040000fa
:0400f4009403000071
:020000040000fa
:0400f800940300006d
:020000040000fa
:0400fc009403000069
:020000040000fa
:040100009403000064
:020000040000fa
:040104009403000060
:020000040000fa
:04010800940300005c
:020000040000fa
:04010c009403000058
:020000040000fa
:040110009403000054
:020000040000fa
:040114009403000050
:020000040000fa
:04011800940300004c
:020000040000fa
:04011c009403000048
:020000040000fa
:040120009403000044
:020000040000fa
:040124009403000040
:020000040000fa
:04012800940300003c
:020000040000fa
:04012c009403000038
:020000040000fa
:040130009403000034
:020000040000fa
:040134009403000030
:020000040000fa
:04013800940300002c
:020000040000fa
:04013c009403000028
:020000040000fa
:040140009403000024
:020000040000fa
:040144009403000020
:020000040000fa
:04014800940300001c
:020000040000fa
:04014c009403000018
:020000040000fa
:040150009403000014
:020000040000fa
:040154009403000010
:020000040000fa
:04015800940300000c
:020000040000fa
:04015c009403000008
:020000040000fa
:040160009403000004
:020000040000fa
:040164009403000000
:020000040000fa
:0401680094030000fc
:020000040000fa
:04016c0094030000f8
:020000040000fa
:0401700094030000f4
:020000040000fa
:0401740094030000f0
:020000040000fa
:0401780094030000ec
:020000040000fa
:04017c0094030000e8
:020000040000fa
:0401800094030000e4
:020000040000fa
:0401840094030000e0
:020000040000fa
:0401880094030000dc
:020000040000fa
:04018c0094030000d8
:020000040000fa
:0401900094030000d4
:020000040000fa
:0401940094030000d0
:020000040000fa
:0401980094030000cc
:020000040000fa
:04019c0094030000c8
:020000040000fa
:0401a00094030000c4
:020000040000fa
:0401a40094030000c0
:020000040000fa
:0401a80094030000bc
:020000040000fa
:0401ac0094030000b8
:020000040000fa
:0401b00094030000b4
:020000040000fa
:0401b40094030000b0
:020000040000fa
:0401b80094030000ac
:020000040000fa
:0401bc0094030000a8
:020000040000fa
:0401c00094030000a4
:020000040000fa
:0401c40094030000a0
:020000040000fa
:0401c800940300009c
:020000040000fa
:0401cc009403000098
:020000040000fa
:0401d0009403000094
:020000040000fa
:0401d4009403000090
:020000040000fa
:0401d800940300008c
:020000040000fa
:0401dc009403000088
:020000040000fa
:0401e0009403000084
:020000040000fa
:0401e4009403000080
:020000040000fa
:0401e800940300007c
:020000040000fa
:0401ec009403000078
:020000040000fa
:0401f0009403000074
:020000040000fa
:0401f4009403000070
:020000040000fa
:0401f800940300006c
:020000040000fa
:0401fc009403000068
:020000040000fa
:040200009403000063
:020000040000fa
:04020400940300005f
:020000040000fa
:04020800940300005b
:020000040000fa
:04020c009403000057
:020000040000fa
:040210009403000053
:020000040000fa
:04021400940300004f
:020000040000fa
:04021800940300004b
:020000040000fa
:04021c009403000047
:020000040000fa
:040220009403000043
:020000040000fa
:04022400940300003f
:020000040000fa
:04022800940300003b
:020000040000fa
:04022c009403000037
:020000040000fa
:040230009403000033
:020000040000fa
:04023400940300002f
:020000040000fa
:04023800940300002b
:020000040000fa
:04023c009403000027
:020000040000fa
:040240009403000023
:020000040000fa
:04024400940300001f
:020000040000fa
:04024800940300001b
:020000040000fa
:04024c009403000017
:020000040000fa
:040250009403000013
:020000040000fa
:04025400940300000f
:020000040000fa
:04025800940300000b
:020000040000fa
:04025c009403000007
:020000040000fa
:040260009403000003
:020000040000fa
:0402640094030000ff
:020000040000fa
:0402680094030000fb
:020000040000fa
:04026c0094030000f7
:020000040000fa
:0402700094030000f3
:020000040000fa
:0402740094030000ef
:020000040000fa
:0402780094030000eb
:020000040000fa
:04027c0094030000e7
:020000040000fa
:0402800094030000e3
:020000040000fa
:0402840094030000df
:020000040000fa
:0402880094030000db
:020000040000fa
:04028c0094030000d7
:020000040000fa
:0402900094030000d3
:020000040000fa
:0402940094030000cf
:020000040000fa
:0402980094030000cb
:020000040000fa
:04029c0094030000c7
:020000040000fa
:0402a00094030000c3
:020000040000fa
:0402a40094030000bf
:020000040000fa
:0402a80094030000bb
:020000040000fa
:0402ac0094030000b7
:020000040000fa
:0402b00094030000b3
:020000040000fa
:0402b40094030000af
:020000040000fa
:0402b80094030000ab
:020000040000fa
:0402bc0094030000a7
:020000040000fa
:0402c00094030000a3
:020000040000fa
:0402c400940300009f
:020000040000fa
:0402c800940300009b
:020000040000fa
:0402cc009403000097
:020000040000fa
:0402d0009403000093
:020000040000fa
:0402d400940300008f
:020000040000fa
:0402d800940300008b
:020000040000fa
:0402dc009403000087
:020000040000fa
:0402e0009403000083
:020000040000fa
:0402e400940300007f
:020000040000fa
:0402e800940300007b
:020000040000fa
:0402ec009403000077
:020000040000fa
:0402f0009403000073
:020000040000fa
:0402f400940300006f
:020000040000fa
:0402f800940300006b
:020000040000fa
:0402fc009403000067
:020000040000fa
:040300009403000062
:020000040000fa
:04030400940300005e
:020000040000fa
:04030800940300005a
:020000040000fa
:04030c009403000056
:020000040000fa
:040310009403000052
:020000040000fa
:100400004f0021000eff21000e01880000000000b7
:10041000000020000000e000020032000001200087
:100420002002880014000700c10007000000e0005f
:1004300003003a00e05420000100200002003700d1
:100440000000200001002000810f70000100320038
:100450000f000700000020000000e0000200320052
:100460000000020000000000400502000000000043
:100470000040da000000fe00200020000000e00044
:1004800002003200100020009001880000000600e9
:10049000a1028800800478000000eb001f003700f4
:1004a000e284440054a0b4009905ba00e2844400f8
:1004b00054a0b4009906ba00e284440054a0b400e9
:1004c0000006eb00476fde00fd07b200ae018800ba
:1004d000636ce10003003a000ad801000000eb0061
:1004e0000e003700606ce10008003a00004deb00a0
:1004f0000a05e800020039003420ec000af0a000f0
:100500008b05e900f9ff3e00040037006168e10057
:10051000010032000086eb000b00070019c7ba008b
:100520000e04e0001905ba0003003a000a00e000da
:10053000dbff3a0000000600fe07b200ae028800b2
:100540008a047800f5ff37000cd0a300e20f4d00bd
:100550001c00390089027800354dba000a05e80010
:10056000020039003420ec000af0a0008b05e900fd
:100570000f003200254dba000a05e80002003900dc
:100580003420ec000af0a0008b05e90008003200de
:100590000c00e0000600320015cdba000a05e800a4
:1005a000020039003420ec000af0a0008b05e900bd
:1005b0008984e80054a0b4000b00e000e2ff3a0098
:1005c000000006009902ba00055d78008b05e9007d
:1005d000f7ff3200c82ade00055d78008b05e900d0
:1005e000f3ff32000c00e000f1ff320019ddba0029
:1005f000eeff3700809fbe000000fa002010800050
:10060000640060000000e0000a003a002110800051
:1006100000022000008060000000e00005003a00b9
:10062000701080000040780002f0b7000182a8003e
:100630003800370020108000640060000000e000f7
:100640000a003a00211080000002200000806000b3
:100650000000e000050032007010800000407800cb
:1006600000f0b7000182a8002a00370020108000a7
:10067000640060000000e0000f00320021108000e4
:1006800000022000008060000000e0000a003a0044
:10069000701080000040780002f0b70001d0bf0069
:1006a0008080fb00611088000040e80001f0b70086
:1006b0000182a8001700370020108000640060004d
:1006c0000000e00013003200211080000002200032
:1006d000008060000000e0000e0032002110800069
:1006e00000002800008060000000e00009003a00df
:1006f000701080000040780002f0b70001d0bf0009
:100700008080fb00611088000040e80001f0b70025
:100710000182a800042ea9000208a9000080fa00a6
:100720004f00be00004006000040da000000fe005e
:0407300000000500c0
:020000040000fa
:100734000000fa0000182c00001088008006200039
:100744001010880070002000301088000822ef008c
:1007540010002000501088000080fa0000000600fd
:100764000000fa0001e2a8000080fa000000060080
:100774000000fa0001e2a9000080fa00000006006f
:100784000000fa0000c2a8000182a9000080fa005b
:10079400000006000000fa0000c2a9000182a800bf
:1007a4000080fa00000006000200fa00000f780042
:1007b4009e007800311088000080fa0000000600d6
:1007c4000200fa00000f78009e00780041108800b3
:1007d4000080fa00000006000000fa000222a800cf
:1007e4000080fa00000006000000fa000222a900be
:1007f4000080fa00000006000000fa000202a800cf
:100804000080fa00000006000000fa000202a900bd
:100814000080fa00000006000000fa0021108000a9
:10082400000028000080600000f0a7000000ea003b
:100834000000e9004f00de00004078000080fa006c
:10084400000006000000fa002110800000002200d1
:100854000080600000f0a7000000ea000000ea0049
:100864004f00de00004078000080fa00000006001f
:100874000000fa00211080000020200000806000a9
:1008840000f0a7000000ea000000ea004f00de00cc
:10089400004078000080fa00000006000000fa0022
:1008a40021108000000420000080600000f0a700f8
:1008b4000000ea000000ea004f00de00004078007b
:1008c4000080fa00000006000000fa0021108000f9
:1008d400000220000080600000f0a7000000ea0091
:1008e4000000ea004f00de00004078000080fa00bb
:1008f400000006000000fa00201080007000600074
:1009040000f0a7000000ea000000ea004f00de004b
:10091400004078000080fa00000006000000fa00a1
:10092400201080006800600000f0a7000000ea00ca
:100934000000ea004f00de00004078000080fa006a
:10094400000006000000fa0020108000640060002f
:1009540000f0a7000000ea000000ea004f00de00fb
:10096400004078000080fa00000006000000fa0051
:10097400201080006200600000f0a7000000ea0080
:100984000000ea004f00de00004078000080fa001a
:10099400000006000000fa002010800061006000e2
:1009a40000f0a7000000ea000000ea004f00de00ab
:1009b400004078000080fa00000006000200fa00ff
:1009c400004f78001e80fb00601088000080fa0051
:1009d400000006000000fa0070108000004078005b
:1009e4000080fa00000006000000fa002000200049
:1009f40020708800182eef0050012000007088003d
:100a04000080eb00a07088000c2eef00202eef0079
:100a14000a2eef001e2eef00062eef001a2eef0016
:100a24005001200070708800c038200010718800c8
:100a34000080fa00000006000000fa00c3e8a800e5
:100a44000080fa00000006000000fa00c3e8a900d4
:100a54000080fa00000006000000fa00c1e8a900c6
:100a64000208a9002208a800404280007000b300d8
:100a7400404288000080fa00000006000000fa00ee
:100a8400edff0700f4ff0700d7ff070028ff07006a
:080a9400042ea800feff37004c
:020000040000fa
:100a9c0000100000040000008000000000000000b6
:020000040000fa
:04af0000ffff00004f
:020000040000fa
:04af2000ffff00002f
:020000040000fa
:04af3000ffff00001f
:020000040000fa
:04af3800bfff000057
:020000040000fa
:04af4000ffff00000f
:020000040000fa
:04af4800ffff000007
:020000040000fa
:04af5000ffff0000ff
:020000040000fa
:04af5800ffff0000f7
:020000040000fa
:04af6000ffff0000ef
:020000040000fa
:04af6800ffff0000e7
:020000040000fa
:04af7000ffff0000df
:020000040000fa
:04af7800ffff0000d7
:020000040000fa
:04af8000ffff0000cf
:020000040000fa
:04af8800ffff0000c7
:00000001FF
