:020000040000fa
:080000000002040000000000f2
:020000040000fa
:040008004e030000a3
:020000040000fa
:04000c004e0300009f
:020000040000fa
:040010004e0300009b
:020000040000fa
:040014004e03000097
:020000040000fa
:040018004e03000093
:020000040000fa
:04001c004e0300008f
:020000040000fa
:040020004e0300008b
:020000040000fa
:040024004e03000087
:020000040000fa
:040028004e03000083
:020000040000fa
:04002c004e0300007f
:020000040000fa
:040030004e0300007b
:020000040000fa
:040034004e03000077
:020000040000fa
:040038004e03000073
:020000040000fa
:04003c004e0300006f
:020000040000fa
:040040004e0300006b
:020000040000fa
:040044004e03000067
:020000040000fa
:040048004e03000063
:020000040000fa
:04004c004e0300005f
:020000040000fa
:040050004e0300005b
:020000040000fa
:040054004e03000057
:020000040000fa
:040058004e03000053
:020000040000fa
:04005c004e0300004f
:020000040000fa
:040060004e0300004b
:020000040000fa
:040064004e03000047
:020000040000fa
:040068004e03000043
:020000040000fa
:04006c004e0300003f
:020000040000fa
:040070004e0300003b
:020000040000fa
:040074004e03000037
:020000040000fa
:040078004e03000033
:020000040000fa
:04007c004e0300002f
:020000040000fa
:040080004e0300002b
:020000040000fa
:040084004e03000027
:020000040000fa
:040088004e03000023
:020000040000fa
:04008c004e0300001f
:020000040000fa
:040090004e0300001b
:020000040000fa
:040094004e03000017
:020000040000fa
:040098004e03000013
:020000040000fa
:04009c004e0300000f
:020000040000fa
:0400a0004e0300000b
:020000040000fa
:0400a4004e03000007
:020000040000fa
:0400a8004e03000003
:020000040000fa
:0400ac004e030000ff
:020000040000fa
:0400b0004e030000fb
:020000040000fa
:0400b4004e030000f7
:020000040000fa
:0400b8004e030000f3
:020000040000fa
:0400bc004e030000ef
:020000040000fa
:0400c0004e030000eb
:020000040000fa
:0400c4004e030000e7
:020000040000fa
:0400c8004e030000e3
:020000040000fa
:0400cc004e030000df
:020000040000fa
:0400d0004e030000db
:020000040000fa
:0400d4004e030000d7
:020000040000fa
:0400d8004e030000d3
:020000040000fa
:0400dc004e030000cf
:020000040000fa
:0400e0004e030000cb
:020000040000fa
:0400e4004e030000c7
:020000040000fa
:0400e8004e030000c3
:020000040000fa
:0400ec004e030000bf
:020000040000fa
:0400f0004e030000bb
:020000040000fa
:0400f4004e030000b7
:020000040000fa
:0400f8004e030000b3
:020000040000fa
:0400fc004e030000af
:020000040000fa
:040100004e030000aa
:020000040000fa
:040104004e030000a6
:020000040000fa
:040108004e030000a2
:020000040000fa
:04010c004e0300009e
:020000040000fa
:040110004e0300009a
:020000040000fa
:040114004e03000096
:020000040000fa
:040118004e03000092
:020000040000fa
:04011c004e0300008e
:020000040000fa
:040120004e0300008a
:020000040000fa
:040124004e03000086
:020000040000fa
:040128004e03000082
:020000040000fa
:04012c004e0300007e
:020000040000fa
:040130004e0300007a
:020000040000fa
:040134004e03000076
:020000040000fa
:040138004e03000072
:020000040000fa
:04013c004e0300006e
:020000040000fa
:040140004e0300006a
:020000040000fa
:040144004e03000066
:020000040000fa
:040148004e03000062
:020000040000fa
:04014c004e0300005e
:020000040000fa
:040150004e0300005a
:020000040000fa
:040154004e03000056
:020000040000fa
:040158004e03000052
:020000040000fa
:04015c004e0300004e
:020000040000fa
:040160004e0300004a
:020000040000fa
:040164004e03000046
:020000040000fa
:040168004e03000042
:020000040000fa
:04016c004e0300003e
:020000040000fa
:040170004e0300003a
:020000040000fa
:040174004e03000036
:020000040000fa
:040178004e03000032
:020000040000fa
:04017c004e0300002e
:020000040000fa
:040180004e0300002a
:020000040000fa
:040184004e03000026
:020000040000fa
:040188004e03000022
:020000040000fa
:04018c004e0300001e
:020000040000fa
:040190004e0300001a
:020000040000fa
:040194004e03000016
:020000040000fa
:040198004e03000012
:020000040000fa
:04019c004e0300000e
:020000040000fa
:0401a0004e0300000a
:020000040000fa
:0401a4004e03000006
:020000040000fa
:0401a8004e03000002
:020000040000fa
:0401ac004e030000fe
:020000040000fa
:0401b0004e030000fa
:020000040000fa
:0401b4004e030000f6
:020000040000fa
:0401b8004e030000f2
:020000040000fa
:0401bc004e030000ee
:020000040000fa
:0401c0004e030000ea
:020000040000fa
:0401c4004e030000e6
:020000040000fa
:0401c8004e030000e2
:020000040000fa
:0401cc004e030000de
:020000040000fa
:0401d0004e030000da
:020000040000fa
:0401d4004e030000d6
:020000040000fa
:0401d8004e030000d2
:020000040000fa
:0401dc004e030000ce
:020000040000fa
:0401e0004e030000ca
:020000040000fa
:0401e4004e030000c6
:020000040000fa
:0401e8004e030000c2
:020000040000fa
:0401ec004e030000be
:020000040000fa
:0401f0004e030000ba
:020000040000fa
:0401f4004e030000b6
:020000040000fa
:0401f8004e030000b2
:020000040000fa
:0401fc004e030000ae
:020000040000fa
:040200004e030000a9
:020000040000fa
:040204004e030000a5
:020000040000fa
:040208004e030000a1
:020000040000fa
:04020c004e0300009d
:020000040000fa
:040210004e03000099
:020000040000fa
:040214004e03000095
:020000040000fa
:040218004e03000091
:020000040000fa
:04021c004e0300008d
:020000040000fa
:040220004e03000089
:020000040000fa
:040224004e03000085
:020000040000fa
:040228004e03000081
:020000040000fa
:04022c004e0300007d
:020000040000fa
:040230004e03000079
:020000040000fa
:040234004e03000075
:020000040000fa
:040238004e03000071
:020000040000fa
:04023c004e0300006d
:020000040000fa
:040240004e03000069
:020000040000fa
:040244004e03000065
:020000040000fa
:040248004e03000061
:020000040000fa
:04024c004e0300005d
:020000040000fa
:040250004e03000059
:020000040000fa
:040254004e03000055
:020000040000fa
:040258004e03000051
:020000040000fa
:04025c004e0300004d
:020000040000fa
:040260004e03000049
:020000040000fa
:040264004e03000045
:020000040000fa
:040268004e03000041
:020000040000fa
:04026c004e0300003d
:020000040000fa
:040270004e03000039
:020000040000fa
:040274004e03000035
:020000040000fa
:040278004e03000031
:020000040000fa
:04027c004e0300002d
:020000040000fa
:040280004e03000029
:020000040000fa
:040284004e03000025
:020000040000fa
:040288004e03000021
:020000040000fa
:04028c004e0300001d
:020000040000fa
:040290004e03000019
:020000040000fa
:040294004e03000015
:020000040000fa
:040298004e03000011
:020000040000fa
:04029c004e0300000d
:020000040000fa
:0402a0004e03000009
:020000040000fa
:0402a4004e03000005
:020000040000fa
:0402a8004e03000001
:020000040000fa
:0402ac004e030000fd
:020000040000fa
:0402b0004e030000f9
:020000040000fa
:0402b4004e030000f5
:020000040000fa
:0402b8004e030000f1
:020000040000fa
:0402bc004e030000ed
:020000040000fa
:0402c0004e030000e9
:020000040000fa
:0402c4004e030000e5
:020000040000fa
:0402c8004e030000e1
:020000040000fa
:0402cc004e030000dd
:020000040000fa
:0402d0004e030000d9
:020000040000fa
:0402d4004e030000d5
:020000040000fa
:0402d8004e030000d1
:020000040000fa
:0402dc004e030000cd
:020000040000fa
:0402e0004e030000c9
:020000040000fa
:0402e4004e030000c5
:020000040000fa
:0402e8004e030000c1
:020000040000fa
:0402ec004e030000bd
:020000040000fa
:0402f0004e030000b9
:020000040000fa
:0402f4004e030000b5
:020000040000fa
:0402f8004e030000b1
:020000040000fa
:0402fc004e030000ad
:020000040000fa
:040300004e030000a8
:020000040000fa
:040304004e030000a4
:020000040000fa
:040308004e030000a0
:020000040000fa
:04030c004e0300009c
:020000040000fa
:040310004e03000098
:020000040000fa
:100400000f0021000eff21000e01880000000000f7
:10041000000020000000e000020032000001200087
:1004200020028800140007009e0007000000e00082
:1004300003003a0000002000010020000200370005
:100440000000200001002000810f70000100320038
:100450000f000700000020000000e0000200320052
:100460000000020000000000ac03020000000000d9
:100470000040da000000fe00200020000000e00044
:1004800002003200100020009001880000000600e9
:10049000a1028800800478000000eb001f003700f4
:1004a000e284440054a0b4009905ba00e2844400f8
:1004b00054a0b4009906ba00e284440054a0b400e9
:1004c0000006eb00476fde00fd07b200ae018800ba
:1004d000636ce10003003a000ad801000000eb0061
:1004e0000e003700606ce10008003a00004deb00a0
:1004f0000a05e800020039003420ec000af0a000f0
:100500008b05e900f9ff3e00040037006168e10057
:10051000010032000086eb000b00070019c7ba008b
:100520000e04e0001905ba0003003a000a00e000da
:10053000dbff3a0000000600fe07b200ae028800b2
:100540008a047800f5ff37000cd0a300e20f4d00bd
:100550001c00390089027800354dba000a05e80010
:10056000020039003420ec000af0a0008b05e900fd
:100570000f003200254dba000a05e80002003900dc
:100580003420ec000af0a0008b05e90008003200de
:100590000c00e0000600320015cdba000a05e800a4
:1005a000020039003420ec000af0a0008b05e900bd
:1005b0008984e80054a0b4000b00e000e2ff3a0098
:1005c000000006009902ba00055d78008b05e9007d
:1005d000f7ff3200c82ade00055d78008b05e900d0
:1005e000f3ff32000c00e000f1ff320019ddba0029
:1005f000eeff37003600f800809fbe00829fbe00ed
:10060000849fbe00869fbe003200f8003400f800d0
:1006100010002000a0018800100020009001880038
:10062000000000000000fa0010408000610060003f
:100630000000e000010032000208a90020708000e4
:100640000000d100614060000004a2006140600031
:100650000080fb006100600000004000217080000d
:100660000110a100010070002070880000482800df
:10067000e10120003d0007000080fa003400f9008d
:100680003200f9004f03be004f02be004f01be0012
:100690004f00be003600f900004006000040da00be
:0806a0000000fe00000005004f
:020000040000fa
:1006a8000000fa00c3e8a8000000000000000000f5
:1006b8000080fa00000006000000fa002000200078
:1006c80020708800182eef0050012000007088006c
:1006d8000080eb00a07088000c2eef00202eef00a9
:1006e8000a2eef001e2eef00062eef001a2eef0046
:1006f8005001200070708800c038200010718800f8
:100708000080fa00000006000000fa00009c2c009f
:100718000010880000072000101088000422ef0055
:1007280070002000301088000822ef001000200020
:10073800501088000208a9002208a8004042800042
:100748007000b300404288000080fa0000000600f4
:100758000000fa00d2ff0700d7ff0700eaff0700f2
:04076800ffff370058
:020000040000fa
:10076c00f03fb1000180b10006003500ee03090036
:10077c0000000000403fb1000180b100fbff3d00d4
:10078c001000b000203fb0000200350000800900ce
:08079c0000000000000006004f
:00000001FF
