:020000040000fa
:080000000002040000000000f2
:020000040000fa
:040008004a030000a7
:020000040000fa
:04000c004a030000a3
:020000040000fa
:040010004a0300009f
:020000040000fa
:040014004a0300009b
:020000040000fa
:040018004a03000097
:020000040000fa
:04001c004a03000093
:020000040000fa
:040020004a0300008f
:020000040000fa
:040024004a0300008b
:020000040000fa
:040028004a03000087
:020000040000fa
:04002c004a03000083
:020000040000fa
:040030004a0300007f
:020000040000fa
:040034004a0300007b
:020000040000fa
:040038004a03000077
:020000040000fa
:04003c004a03000073
:020000040000fa
:040040004a0300006f
:020000040000fa
:040044004a0300006b
:020000040000fa
:040048004a03000067
:020000040000fa
:04004c004a03000063
:020000040000fa
:040050004a0300005f
:020000040000fa
:040054004a0300005b
:020000040000fa
:040058004a03000057
:020000040000fa
:04005c004a03000053
:020000040000fa
:040060004a0300004f
:020000040000fa
:040064004a0300004b
:020000040000fa
:040068004a03000047
:020000040000fa
:04006c004a03000043
:020000040000fa
:040070004a0300003f
:020000040000fa
:040074004a0300003b
:020000040000fa
:040078004a03000037
:020000040000fa
:04007c004a03000033
:020000040000fa
:040080004a0300002f
:020000040000fa
:040084004a0300002b
:020000040000fa
:040088004a03000027
:020000040000fa
:04008c004a03000023
:020000040000fa
:040090004a0300001f
:020000040000fa
:040094004a0300001b
:020000040000fa
:040098004a03000017
:020000040000fa
:04009c004a03000013
:020000040000fa
:0400a0004a0300000f
:020000040000fa
:0400a4004a0300000b
:020000040000fa
:0400a8004a03000007
:020000040000fa
:0400ac004a03000003
:020000040000fa
:0400b0004a030000ff
:020000040000fa
:0400b4004a030000fb
:020000040000fa
:0400b8004a030000f7
:020000040000fa
:0400bc004a030000f3
:020000040000fa
:0400c0004a030000ef
:020000040000fa
:0400c4004a030000eb
:020000040000fa
:0400c8004a030000e7
:020000040000fa
:0400cc004a030000e3
:020000040000fa
:0400d0004a030000df
:020000040000fa
:0400d4004a030000db
:020000040000fa
:0400d8004a030000d7
:020000040000fa
:0400dc004a030000d3
:020000040000fa
:0400e0004a030000cf
:020000040000fa
:0400e4004a030000cb
:020000040000fa
:0400e8004a030000c7
:020000040000fa
:0400ec004a030000c3
:020000040000fa
:0400f0004a030000bf
:020000040000fa
:0400f4004a030000bb
:020000040000fa
:0400f8004a030000b7
:020000040000fa
:0400fc004a030000b3
:020000040000fa
:040100004a030000ae
:020000040000fa
:040104004a030000aa
:020000040000fa
:040108004a030000a6
:020000040000fa
:04010c004a030000a2
:020000040000fa
:040110004a0300009e
:020000040000fa
:040114004a0300009a
:020000040000fa
:040118004a03000096
:020000040000fa
:04011c004a03000092
:020000040000fa
:040120004a0300008e
:020000040000fa
:040124004a0300008a
:020000040000fa
:040128004a03000086
:020000040000fa
:04012c004a03000082
:020000040000fa
:040130004a0300007e
:020000040000fa
:040134004a0300007a
:020000040000fa
:040138004a03000076
:020000040000fa
:04013c004a03000072
:020000040000fa
:040140004a0300006e
:020000040000fa
:040144004a0300006a
:020000040000fa
:040148004a03000066
:020000040000fa
:04014c004a03000062
:020000040000fa
:040150004a0300005e
:020000040000fa
:040154004a0300005a
:020000040000fa
:040158004a03000056
:020000040000fa
:04015c004a03000052
:020000040000fa
:040160004a0300004e
:020000040000fa
:040164004a0300004a
:020000040000fa
:040168004a03000046
:020000040000fa
:04016c004a03000042
:020000040000fa
:040170004a0300003e
:020000040000fa
:040174004a0300003a
:020000040000fa
:040178004a03000036
:020000040000fa
:04017c004a03000032
:020000040000fa
:040180004a0300002e
:020000040000fa
:040184004a0300002a
:020000040000fa
:040188004a03000026
:020000040000fa
:04018c004a03000022
:020000040000fa
:040190004a0300001e
:020000040000fa
:040194004a0300001a
:020000040000fa
:040198004a03000016
:020000040000fa
:04019c004a03000012
:020000040000fa
:0401a0004a0300000e
:020000040000fa
:0401a4004a0300000a
:020000040000fa
:0401a8004a03000006
:020000040000fa
:0401ac004a03000002
:020000040000fa
:0401b0004a030000fe
:020000040000fa
:0401b4004a030000fa
:020000040000fa
:0401b8004a030000f6
:020000040000fa
:0401bc004a030000f2
:020000040000fa
:0401c0004a030000ee
:020000040000fa
:0401c4004a030000ea
:020000040000fa
:0401c8004a030000e6
:020000040000fa
:0401cc004a030000e2
:020000040000fa
:0401d0004a030000de
:020000040000fa
:0401d4004a030000da
:020000040000fa
:0401d8004a030000d6
:020000040000fa
:0401dc004a030000d2
:020000040000fa
:0401e0004a030000ce
:020000040000fa
:0401e4004a030000ca
:020000040000fa
:0401e8004a030000c6
:020000040000fa
:0401ec004a030000c2
:020000040000fa
:0401f0004a030000be
:020000040000fa
:0401f4004a030000ba
:020000040000fa
:0401f8004a030000b6
:020000040000fa
:0401fc004a030000b2
:020000040000fa
:040200004a030000ad
:020000040000fa
:040204004a030000a9
:020000040000fa
:040208004a030000a5
:020000040000fa
:04020c004a030000a1
:020000040000fa
:040210004a0300009d
:020000040000fa
:040214004a03000099
:020000040000fa
:040218004a03000095
:020000040000fa
:04021c004a03000091
:020000040000fa
:040220004a0300008d
:020000040000fa
:040224004a03000089
:020000040000fa
:040228004a03000085
:020000040000fa
:04022c004a03000081
:020000040000fa
:040230004a0300007d
:020000040000fa
:040234004a03000079
:020000040000fa
:040238004a03000075
:020000040000fa
:04023c004a03000071
:020000040000fa
:040240004a0300006d
:020000040000fa
:040244004a03000069
:020000040000fa
:040248004a03000065
:020000040000fa
:04024c004a03000061
:020000040000fa
:040250004a0300005d
:020000040000fa
:040254004a03000059
:020000040000fa
:040258004a03000055
:020000040000fa
:04025c004a03000051
:020000040000fa
:040260004a0300004d
:020000040000fa
:040264004a03000049
:020000040000fa
:040268004a03000045
:020000040000fa
:04026c004a03000041
:020000040000fa
:040270004a0300003d
:020000040000fa
:040274004a03000039
:020000040000fa
:040278004a03000035
:020000040000fa
:04027c004a03000031
:020000040000fa
:040280004a0300002d
:020000040000fa
:040284004a03000029
:020000040000fa
:040288004a03000025
:020000040000fa
:04028c004a03000021
:020000040000fa
:040290004a0300001d
:020000040000fa
:040294004a03000019
:020000040000fa
:040298004a03000015
:020000040000fa
:04029c004a03000011
:020000040000fa
:0402a0004a0300000d
:020000040000fa
:0402a4004a03000009
:020000040000fa
:0402a8004a03000005
:020000040000fa
:0402ac004a03000001
:020000040000fa
:0402b0004a030000fd
:020000040000fa
:0402b4004a030000f9
:020000040000fa
:0402b8004a030000f5
:020000040000fa
:0402bc004a030000f1
:020000040000fa
:0402c0004a030000ed
:020000040000fa
:0402c4004a030000e9
:020000040000fa
:0402c8004a030000e5
:020000040000fa
:0402cc004a030000e1
:020000040000fa
:0402d0004a030000dd
:020000040000fa
:0402d4004a030000d9
:020000040000fa
:0402d8004a030000d5
:020000040000fa
:0402dc004a030000d1
:020000040000fa
:0402e0004a030000cd
:020000040000fa
:0402e4004a030000c9
:020000040000fa
:0402e8004a030000c5
:020000040000fa
:0402ec004a030000c1
:020000040000fa
:0402f0004a030000bd
:020000040000fa
:0402f4004a030000b9
:020000040000fa
:0402f8004a030000b5
:020000040000fa
:0402fc004a030000b1
:020000040000fa
:040300004a030000ac
:020000040000fa
:040304004a030000a8
:020000040000fa
:040308004a030000a4
:020000040000fa
:04030c004a030000a0
:020000040000fa
:040310004a0300009c
:020000040000fa
:100400000f0021000eff21000e01880000000000f7
:10041000000020000000e000020032000001200087
:1004200020028800140007009c0007000000e00084
:1004300003003a0000002000010020000200370005
:100440000000200001002000810f70000100320038
:100450000f000700000020000000e0000200320052
:100460000000020000000000f20402000000000092
:100470000040da000000fe00200020000000e00044
:1004800002003200100020009001880000000600e9
:10049000a1028800800478000000eb001f003700f4
:1004a000e284440054a0b4009905ba00e2844400f8
:1004b00054a0b4009906ba00e284440054a0b400e9
:1004c0000006eb00476fde00fd07b200ae018800ba
:1004d000636ce10003003a000ad801000000eb0061
:1004e0000e003700606ce10008003a00004deb00a0
:1004f0000a05e800020039003420ec000af0a000f0
:100500008b05e900f9ff3e00040037006168e10057
:10051000010032000086eb000b00070019c7ba008b
:100520000e04e0001905ba0003003a000a00e000da
:10053000dbff3a0000000600fe07b200ae028800b2
:100540008a047800f5ff37000cd0a300e20f4d00bd
:100550001c00390089027800354dba000a05e80010
:10056000020039003420ec000af0a0008b05e900fd
:100570000f003200254dba000a05e80002003900dc
:100580003420ec000af0a0008b05e90008003200de
:100590000c00e0000600320015cdba000a05e800a4
:1005a000020039003420ec000af0a0008b05e900bd
:1005b0008984e80054a0b4000b00e000e2ff3a0098
:1005c000000006009902ba00055d78008b05e9007d
:1005d000f7ff3200c82ade00055d78008b05e900d0
:1005e000f3ff32000c00e000f1ff320019ddba0029
:1005f000eeff37003600f800809fbe00829fbe00ed
:10060000849fbe00869fbe000000fa00104080005c
:10061000610060000000e000170032000208a9003d
:10062000980007000004e000130032000000000002
:10063000690007000004a2000004e000fcff3a008b
:1006400030c5b300b7000700207080000000d10063
:10065000614060000004a200614060000080fb0077
:100660006100600000004000217080000110a100c6
:1006700001007000207088000080fa004f03be0067
:100680004f02be004f01be004f00be003600f90011
:10069000004006000040da000000fe0000000500f7
:020000040000fa
:1006a0000000fa0000182c000010880080042000d0
:1006b0001010880070002000301088000822ef0021
:1006c0000080fa00000006000000fa0001e2a80025
:1006d0000080fa00000006000000fa0001e2a90014
:1006e0000080fa00000006000000fa0000c2a80026
:1006f0000182a9000080fa00000006000000fa0054
:1007000000c2a9000182a8000080fa0000000600d3
:100710000200fa00000f78009e0078003110880077
:100720000080fa00000006000200fa00000f7800c6
:100730009e007800411088000080fa00000006004a
:100740000000fa000222a8000080fa000000060063
:100750000000fa000222a9000080fa000000060052
:100760000000fa000202a8000080fa000000060063
:100770000000fa000202a9000080fa000000060052
:100780000000fa00211080000000280000806000b6
:1007900000f0a7000000ea000000e9004f00de00c2
:1007a000004078000080fa00000006000000fa0017
:1007b00021108000000022000080600000f0a700ef
:1007c0000000ea000000ea004f00de000040780070
:1007d0000080fa00000006000000fa0021108000ee
:1007e000002020000080600000f0a7000000ea0068
:1007f0000000ea004f00de00004078000080fa00b0
:10080000000006000000fa00211080000004200013
:100810000080600000f0a7000000ea000000ea008d
:100820004f00de00004078000080fa000000060063
:100830000000fa002110800000022000008060000b
:1008400000f0a7000000ea000000ea004f00de0010
:10085000004078000080fa00000006000000fa0066
:10086000201080007000600000f0a7000000ea0087
:100870000000ea004f00de00004078000080fa002f
:10088000000006000000fa002010800068006000f0
:1008900000f0a7000000ea000000ea004f00de00c0
:1008a000004078000080fa00000006000000fa0016
:1008b000201080006400600000f0a7000000ea0043
:1008c0000000ea004f00de00004078000080fa00df
:1008d000000006000000fa002010800062006000a6
:1008e00000f0a7000000ea000000ea004f00de0070
:1008f000004078000080fa00000006000000fa00c6
:10090000201080006100600000f0a7000000ea00f5
:100910000000ea004f00de00004078000080fa008e
:10092000000006000200fa00004f78001e80fb0065
:10093000601088000080fa00000006000000fa0045
:1009400070108000004078000080fa00000006006f
:100950000000fa002000200020708800182eef0010
:1009600050012000007088000080eb00a07088001b
:100970000c2eef00202eef000a2eef001e2eef00af
:10098000062eef001a2eef00500120007070880034
:10099000c0382000107188000080fa0000000600b6
:1009a0000000fa00c3e8a8000080fa00000006007a
:1009b0000000fa00c3e8a9000080fa000000060069
:1009c0000000fa00c1e8a9000208a9002208a80056
:1009d000404280007000b300404288000080fa006e
:1009e000000006000000fa00edff0700f4ff07001a
:0c09f000d7ff07002aff0700ffff3700b9
:020000040000fa
:04af0000ffff00004f
:020000040000fa
:04af2000ffff00002f
:020000040000fa
:04af3000ffff00001f
:020000040000fa
:04af3800bfff000057
:020000040000fa
:04af4000ffff00000f
:020000040000fa
:04af4800ffff000007
:020000040000fa
:04af5000ffff0000ff
:020000040000fa
:04af5800ffff0000f7
:020000040000fa
:04af6000ffff0000ef
:020000040000fa
:04af6800ffff0000e7
:020000040000fa
:04af7000ffff0000df
:020000040000fa
:04af7800ffff0000d7
:020000040000fa
:04af8000ffff0000cf
:020000040000fa
:04af8800ffff0000c7
:00000001FF
